:020000040800F2
:10000000A80F002055490008414700084347000851
:10001000454700084747000849470008000000001E
:100020000000000000000000000000004B47000836
:100030004D470008000000004F47000851470008E6
:10004000794900087D490008814900088549000870
:10005000894900088D490008914900089549000820
:10006000994900089D490008A14900085F47000818
:10007000A5490008A9490008AD49000865470008DE
:100080006B470008B149000871470008B5490008EE
:10009000B9490008BD490008C1490008C549000820
:1000A000C9490008CD490008D1490008D5490008D0
:1000B000D9490008774700087D470008DD49000856
:1000C000E14900088347000889470008E54900081E
:1000D000E94900088F4700089B470008ED490008E0
:1000E000F1490008F5490008F9490008FD490008F0
:1000F000014A0008054A0008094A00080D4A00089C
:10010000114A0008154A0008AF470008194A0008BC
:100110001D4A0008214A0008B5470008254A000882
:10012000294A00082D4A0008314A0008354A0008CB
:10013000F8B5040016D004F13C05687820B9002118
:100140002970204600F08EFF00F066F801F00FFAEB
:1001500001466068DFF8E821904205D2DFF8E4014B
:10016000814205D20120F2BDDFF8DC018142F9D3E2
:10017000DFF8D801B1FBF0F320684360666896426F
:1001800006D34FF4967043434FF47A76B3FBF6F3FD
:1001900027685B1C3B62491E6368934206D25B0082
:1001A00000F034F8042813D2042011E0A06820B92C
:1001B00003EB430300F02AF805E01920434300F065
:1001C00025F840F4804001050CBF012040F40040B8
:1001D0002168C861E269206A0243206802602169DF
:1001E000E0680143206881606169A069014320687B
:1001F000C1602068016841F0010101600020686071
:100200002020687000202063A870F2BDB1FBF3F0DD
:10021000401CC0F30B007047242068702068016800
:1002200049084900016070472DE9FC4700F0B2F829
:1002300000F080F843D100F0A3F800283FD13878CF
:1002400001283CD000F05CF8212000F047F800F0D5
:100250007FFD40B17868042802D1002139702AE07E
:100260000020387029E000F05DF8308D002829D09A
:1002700000F073F8C8B900F075F800F07DF8308D23
:10028000401E308531684A69530706D580B220B1D7
:10029000706A421C726200F018F800F059F80028E9
:1002A000E3D07868042808D102E07868042804D1F3
:1002B000306800F080F8012002E0032000E0022016
:1002C000BDE8F68700F06CF8FAE700780861708DF9
:1002D000411E7185308D411E3185704778702A46E8
:1002E0001020B870414600207860C6F82490A6F827
:1002F0002AA0DFF89C00F062708D30853046704790
:100300000121397030680168CA0703D4026842F0DD
:1003100001020260234630680A9D016821F40061F1
:1003200001607047009030684169009180690090D9
:100330000099704706F13C070446787820287047FA
:10034000A186010080841E0000093D0040420F008C
:1003500022462946304600F026BE2246294630462F
:1003600000F007BE706A411C716231680078086154
:100370007047308D411E3185708D411E71857047EB
:10038000009419230122DFF84414304600F07ABDAE
:100390000000FFFF0646884691469A4601F01AB9CA
:1003A0003068016841F400710160202078700020FD
:1003B000B87038707047016841F40071016070478F
:1003C000DFF80408E06270472DE9F84F044604F1B5
:1003D0003D022168DFF81C8AD1F818904E694F68F9
:1003E0005078DFF88055DFF810AADFF810BADFF890
:1003F00030CA102818BF40286ED116F0011F04F132
:1004000044032ED0B8053ED55078402809D1D8688D
:1004100018B91A6802F0FE0221E0186840F00100E5
:1004200026E02069B0F5804F0BD11278212A03D144
:10043000186800F0FE001CE01A6842F00102D2B217
:100440000DE0D86820B900F0C6F842F0F00206E0EE
:10045000D868012817D100F0BEF842F0F1020A6115
:1004600011E0DFF8C009064205D0BA050BD51868BF
:10047000C0B2086107E016EA0C0F04D0B80544BF0B
:10048000204600F081FA19EA0B0F12D016EA0A0F83
:1004900007D0780505D52E4203D12046BDE8F24F9E
:1004A0000BE12E4245D0B8055CD52046BDE8F24FA1
:1004B00067E116EA080F07D0780505D52E4203D16B
:1004C0002046BDE8F24FAAE12E4232D0B80549D508
:1004D0002046BDE8F24FFCE116EA0C0F12D0B80539
:1004E0001AD58A6989690020530758BF01200A0676
:1004F0000146204654BFE268A269BDE8F84F92B2B7
:1005000001F06EB8DFF82009064205D0BB0503D51F
:100510002046BDE8F24FEBE219EA0B0F2CD016EAA9
:100520000A0F1CD078051AD52E4218D11378608D89
:1005300000284ED0606A451C65620078086100F0B2
:1005400050F808BF292B44D100F051F82120206336
:10055000282010702046BDE8F24F01F042B82E422C
:1005600037D0B80535D5608D002832D0606A421C7E
:1005700062620078086129E016EA080F1BD078054E
:1005800019D52E4217D11378608D10B3606A451CBF
:1005900065620969017000F024F808BF2A2B18D1A0
:1005A00000F025F822202063282010702046BDE8A6
:1005B000F24F01F017B82E420BD0B80509D5608D67
:1005C00038B1606A421C626209690170608D411E27
:1005D0006185BDE8F18F1A681204D20D02F006029F
:1005E0007047608D411E6185608D002870472068CE
:1005F000416821F4806141607047F8B50446DFF836
:100600002C182068456946680D420DD0F20518D5B2
:10061000216C41F0010121646FF480724261206815
:10062000016841F40041016015F4813F09D0F005F3
:100630003CD5206C40F0020020646FF4007120680B
:10064000416115F4823F24D0F0052FD504F13D001F
:100650004778618D0278236B202F08BF00290BD1CA
:10066000212A18BF292A03D0282A08BF212B03D109
:10067000204600F0ABFA0CE0216C41F0040121644B
:100680004078102801D100F0BFFB6FF48060226831
:10069000506115F4843F09D0F00507D5206C40F077
:1006A000080020646FF4006122685161206C18B169
:1006B0002046BDE8F240C5E2F1BD38B500F13D028B
:1006C00013785478C56A018D002908BF212B16D1F3
:1006D000042D1EBF082DDFF858178D4202D000F000
:1006E00081F809E000F08AF804D10023537000F08B
:1006F0007AFF44E00021517000F076FF3FE0212BAB
:1007000003D0402C08BF222B39D1418D11B900F004
:10071000D4F834E0517840292FD100F1480399688A
:1007200089B900685968012905D11A68D2B20261F5
:100730009868801C05E019680904090E0161986831
:10074000401C98601BE09968012907D11A6800686D
:10075000D2B202619968491C996010E09968022937
:100760000DD11378222B05D10068016841F4807106
:10077000016004E01278212A01D100F029F800205C
:1007800032BD10B5C36A00F13D021478212C1AD194
:10079000418D11B100F01CF815E0042B1EBF082B91
:1007A000DFF88C168B4202D000F01CF809E000F054
:1007B00025F804D10023537000F015FF03E0002159
:1007C000517000F011FF002010BD00000200100069
:1007D000416A4A1C4262026809781161418D4A1ED1
:1007E0004285704701684B6823F4E0634B60112138
:1007F00001630021517020211170704701684B681E
:1008000023F4E0634B6001680B6843F400730B60F2
:10081000002101632021117051784029704710B5E3
:1008200000F13D010A78222A45D1428D042A02D3E3
:1008300000F09AF83FE0022A18BF032A13D101689A
:10084000C26A0B68022A08D023F480630B60016837
:100850000A6842F400620A6002E043F480630B60BD
:1008600000F02BF827E00268C36A022B04D014685A
:1008700024F48064146003E0136843F4806313601D
:1008800000F021F8426A531C436203681C6914702B
:10089000428D531E4385002220230B7002634A7849
:1008A000402A04D100234B7000F09FFE03E0002299
:1008B0004A7000F09BFE002010BD0068416821F4E2
:1008C0008061416070470268536823F4E0635360BD
:1008D000704780B5C16A438DDFF85425032B07D1DB
:1008E00004291CBF0829914237D100F0F2F834E006
:1008F000438D022B31D104291CBF082991420ED00F
:100900000268022904D0116821F48061116003E0BB
:10091000136843F48063136000F030F806E000F0E1
:100920002DF801680A6842F400720A6000F01CF8B1
:1009300000F01AF800F13D0120220A700022026343
:100940004A78402A04D100234B7000F04EFE06E0A6
:1009500000224A7000F04AFE01E000F005F8002095
:1009600002BD000004000100416A4A1C42620268A4
:1009700013690B70418D4A1E4285704701684A68B1
:1009800022F440724A60704738B500F13D014A7860
:10099000C36A046B0D78222D40F08580016D00291B
:1009A00008BF402A02D1002200927EE0016D00299A
:1009B00004BF0269B2F5404F07D100F081F842F45C
:1009C00080720A60016D491C6BE0418D11B90022F3
:1009D00000922BE0418D012933D1DFF8542493425A
:1009E0000DD100F076F801684A68130510D4002292
:1009F00000924B6900938A690092009B1CE0042BD3
:100A00001CBF082B122C0DD00168C26A022A04D028
:100A10000B6823F480630B6040E00A6842F4806254
:100A20000A603BE000F055F80021009101684A6936
:100A300000928B690093009A0A6842F400720A607F
:100A40002EE00168428D022A1CD1C36A022B0AD013
:100A50000A6842F400620A60002100F031F822F4D2
:100A600080620A6005E00B6843F480630B6000F06D
:100A700036F801684A68130512D54A6842F4805274
:100A80004A600DE00B6843F480630B6001684A68BC
:100A9000130503D54A6842F480524A6000F01FF8FB
:100AA0000021016504E000210091006800F002F8D7
:100AB000002032BD41690091806900900099704723
:100AC000009101684A6900928B690093009A0A6854
:100AD000704701680A6822F480620A60704700214A
:100AE000009101684A69009289690091009A7047F3
:100AF0007CB500F13D02137801684C6824F4E06491
:100B00004C600021009101684C6900940D6845F02B
:100B100001050D60009901680C6824F480640C6084
:100B2000046861680D050DD51578222D1CBF11785C
:100B30002A2903D1856B29684E6802E0416B0D6854
:100B40006E684685418DD1B16569690707D5416AEF
:100B50004D1C456224690C70418D4C1E4485016812
:100B60004C69650607D5446A651C456209692170B0
:100B7000418D4C1E4485016C41F004010164016CFF
:100B800011B100F05FF81CE0282B1CBF2A2B292B89
:100B90000BD1DFF89C12C16200210163202111708A
:100BA0000021517000F023FD0BE0016B222918BFDA
:100BB000222B06D10023036320211170537000F013
:100BC00011FD002076BD00000000FFFF38B500F1E8
:100BD0003D016FF480620B78C46ADFF85452042C34
:100BE00014BF082C282B15D1C56203685C6824F457
:100BF000E0645C6003685A610268146824F48064ED
:100C000014600022026320220A7000224A7000F061
:100C1000EEFC15E0212B11D1C562036320230B707C
:100C200000234B7001684B6823F4E0634B6001685C
:100C30004A61FFF74EFF00F0D4FC01E0006842611A
:100C4000002032BD38B5044604F13D052878292836
:100C500018BF2A2804D100202063282028700BE028
:100C60002878602805D02168486801055CBF2021EC
:100C7000297000202063687000F05CF820684168EB
:100C80000A0523D5416821F400614160606B0FF2D1
:100C9000A51190F82120012A09D04163606B00F072
:100CA0003DFD002829D000F04BF8606B0BE0A06BF5
:100CB0004163A06B00F032FDF8B1206800F031F81C
:100CC00000F03EF8A06B416B884716E02978602958
:100CD0000ED120222A700022226400F022F820681F
:100CE0000168490849000160204600F092FE04E0D6
:100CF00000F017F8204600F08DFE287828280FD144
:100D0000216C48070CD5FFF75BFB002020632020F7
:100D10002870002068702046BDE8324000F067BCB3
:100D200031BD41694A0604D5616A4A1C62620069A4
:100D3000087070472068016821F400610160704705
:100D40002068016849084900016020202870704728
:100D5000F8B504460D46E06A04281EBF0128344950
:100D6000884216461F4602D100F030F804E0206B9E
:100D7000122801D100F037F80097334600F02EF822
:100D800010BB2069B0F5804F04D1216805F0FE0545
:100D90000D610EE0E809216800F0060040F0F00067
:100DA00008613B4632461F4900F037F838B900F079
:100DB00027F83B4632461A4900F02FF828B1206C3C
:100DC000042801D10120F2BD0320F2BD2068016892
:100DD00041F48071016070470096534600224FF045
:100DE000011120464EE02068036843F480730360DD
:100DF0007047000040000100800001000400100066
:100E00002068EDB2056170472068016841F4007107
:100E10000160704733464A464146204668E000007C
:100E200002000100080001001000010000010100A3
:100E30000000FFFF406A01680A6822F480620A60CD
:100E400000214185426B5163826B516300F13D018A
:100E50000B78602B0BD120220A7000224A700264AA
:100E600001680A68520852000A6000F0D2BD2023CF
:100E70000B7000224A7001680A68520852000A602A
:100E800000F0C8BD2DE9F8430F46089C3D02064618
:100E9000904699462D0E3068012D1ED1406938408C
:100EA00080B2B9B288421ED0002040451DD119F150
:100EB000010FF0D0B9F1000F04D000F08BFB001B44
:100EC0008145E8D200203063202106F13C004170CA
:100ED000002181700170032008E08069384080B2F1
:100EE000B9B28842E0D10120DFE70020BDE8F283FB
:100EF0002DE9FC410F463E02054614469846360E43
:100F00002868012E18D14169394089B2BAB291429C
:100F100018D041694A0517D5026842F40072026090
:100F20006FF480602968486105F13C00042242604A
:100F3000002100F05FF81AE08169394089B2BAB245
:100F40009142E6D1002012E014F1010FD8D02CB16B
:100F500000F040FBA0EB08008442D1D200202863BF
:100F6000202105F13C004170002101700320BDE803
:100F7000F68170B505460C46164628684169080694
:100F80000FD4284600F03DF808B1012070BD14F1DF
:100F9000010FF2D024B100F01DFB801B8442ECD283
:100FA0001BE0002070BD70B505460C46164628684B
:100FB000416948070FD4284600F023F808B1012002
:100FC00070BD14F1010FF2D024B100F003FB801BBF
:100FD0008442ECD201E0002070BD05F13C0000220B
:100FE000416841F0200141602A6320214170027074
:100FF000032070BD29632021417000210170012070
:10100000704701684A6953050DD56FF480634B61E1
:1010100000F13C0104224A60002202632020487053
:101020000A700120704700207047000080B51C48FE
:101030001C4901601C49416000218160C1604FF47E
:1010400080410161002141618161C1610162FFF75D
:101050006FF830B1BDE804405FF0420115A001F027
:101060004CB801BD00680F49884200D07047F8B500
:101070004FF44061009112200321019003916946D1
:101080000A4801F03BF80A48016841F48001016018
:10109000006800F480000090009805B000BD0000DA
:1010A000C008002000580040A0860100000C01404C
:1010B0001C100240463A5C55736572735C6265723F
:1010C000747A5C446F63756D656E74735C476974A4
:1010D0004875625C42535076322E325C42535076F1
:1010E000322E325C5372635C6932632E63000000FF
:1010F0002DE9F8430646DFF89C543078C1074AD5FD
:10110000686800F00C00042807D0686800F00C0044
:1011100008280BD16868C10308D5296888033AD527
:101120007068002840F0C080012069E17068B0F567
:10113000803F0FD038B9296821F4803129602868B0
:1011400020F4802009E0B0F5A02F296807D141F4F0
:1011500080212960286840F48030286006E021F46E
:10116000803129602A6822F480222A60706868B180
:1011700000F030FA04462968880300F1958000F0F9
:1011800029FA001B6528F6D3032039E100F022FA82
:1011900004462868810340F1878000F01BFA001B99
:1011A0006528F6D3F0E700F015FA001B022840F29C
:1011B000AA80E9E7306970B10121396000F00AFACC
:1011C00004462868810700F1DC8000F003FA001B68
:1011D0000228F6D9D8E7386000F0FCF90446286800
:1011E000810765D500F0F6F9001B0228F7D9CBE797
:1011F000086000F0EFF90446686A810777D500F0CF
:10120000E9F9001B0228F7D9BEE708B9286A09E006
:101210000528286A06D140F004002862286A40F0B8
:10122000010005E0400840002862286A20F0040020
:10123000286241F28938F06868B100F0CBF9814644
:10124000286A810700F1AA8000F0C4F9A0EB090028
:101250004045F5D398E700F0BDF98146286A81073B
:1012600040F19C8000F0B6F9A0EB09004045F5D3B1
:101270008AE700F0AFF9001B022840F2A28083E762
:1012800000F0A8F9001B022840F2B5807CE700F0CE
:10129000B9F804462868810140F1B18000F09AF95C
:1012A000001B0228F6D96FE73078DFF8F472810767
:1012B0001BD5686810F00C0F09D0686800F00C00AE
:1012C00008287FF477AF6868C1033FF573AF2968DA
:1012D000880703D5306901287FF426AF2968706933
:1012E00021F0F80141EAC0012960317808071DD5D5
:1012F000B069DFF8B01200283FF47AAF01220A602B
:1013000000F068F90446686A81077FF54CAFDFF8A2
:1013100088120868C0084FF47A72B0FBF2F20092AB
:1013200000BF0098411E00280091F9D13078410794
:1013300039D5E8690024C10009D4E86940F080503B
:10134000E8610124E86900F0805000900098DFF81F
:101350005882D8F80010C8051BD4D8F8000040F413
:101360008070C8F8000000F035F98146D8F8001008
:10137000C8050ED400F02EF9A0EB09006528F5D3BE
:1013800002E72868716920F0F80040EAC10028608F
:10139000ABE7F06801287FF438AF3FE71CB1E8699C
:1013A00020F08050E861F06948B3696801F00C01F1
:1013B00008293FF4B9AE02287FF469AF00F022F8A3
:1013C0000446286881013FF554AF306AB0F5803F8C
:1013D00005D16968B06821F400310143696069682A
:1013E000306A21F474110143706A0143696001207D
:1013F00000F009F80446286881017FF541AF00201C
:10140000BDE8F2830020386600F0E4B82DE9F84327
:10141000664F05463868894600F00700484502D205
:1014200000F07AF86CD129785A4C880705D56168A4
:10143000A86821F0F001014361602878C10757D501
:101440006868012802D121688A0303E0022803D1D9
:1014500021688A0103D453E02268910750D561685E
:10146000890840EA8100606041F2893800F0B2F8F2
:101470000646686801280BD1606800F00C0004285B
:1014800036D000F0A7F8801B4045F5D303202DE0AF
:10149000022837D1606800F00C00082828D000F03E
:1014A00099F8801B4045F5D3F0E72878410705D52A
:1014B0006168E86821F4E061014361602878010710
:1014C00006D56068296920F4605040EAC100606078
:1014D00000F02CF862683649C2F30312895C2E4A88
:1014E000C8401060002000F003FF0020BDE8F28338
:1014F000386800F007008145D7D200F00DF8D4D04D
:101500000120F3E7606810F00C0FF1D000F062F8F2
:10151000801B4045F6D3B9E73968C90849EAC101DB
:101520003960386800F007004845704721491B487A
:101530000A6802F00C03082B00D0704710B500BFFA
:101540001FA4C2F38343D203E35C09D5096800BF3B
:101550001FA2C1F340415843515CB0FBF1F010BDF4
:1015600018461549484310BD0B48006870470A48A3
:10157000104A006813681149C3F3022206E00648C6
:101580000C4A006813680D49C3F3C222895CC84045
:1015900070470000001002403801002000127A005D
:1015A000000042428004424200700040002002409D
:1015B000444800080410024000093D00704900083A
:1015C00002030405060708090A0B0C0D0E0F101084
:1015D0000102000001484068704700BF2C01002054
:1015E0007047704770477047704770477047704743
:1015F00030B508B9012030BD0268DFF8B0138A4267
:1016000000F1280306D2DFF8A81300F02DF8DFF868
:10161000A41305E0DFF8A01300F026F8DFF89C1310
:101620005961022180F82110146841686FF30D148C
:101630000C4381680C43C1680C4301690C43416948
:101640000C4381690C43C1690C431460002119608B
:1016500059609960D9601961012180F82110002139
:1016600080F82010002030BD8C181425B4FBF5F450
:10167000A4009C617047F8B50446002594F820004A
:10168000012801D10220F2BD94F821000126012891
:1016900084F8206024D1022684F8216004F12C060D
:1016A000F560206807687F087F000760204600F02B
:1016B0009FF92168306820B10A6842F00E020A6082
:1016C00008E0086820F0040008602068016841F024
:1016D0000A0101602068026842F00102026002E033
:1016E00084F8205002252846F2BD10B501680A682A
:1016F00022F00E020A6000F13C020B685B085B00FE
:101700000B60012451688C4011684C60012200215B
:1017100080F8212080F82010002010BDF8B590F846
:1017200021200024022A00F1340103D00420486063
:1017300001245FE00268DFF88862136823F00E037B
:1017400013604FF48077026815686D086D001560AE
:101750004FF480320368B3424FF4805519D9DFF853
:101760004C62B34208BF012210D0DFF85862B34286
:1017700008BF10220AD0DFF85062B34208BF3A46D1
:1017800004D0DFF84862B34208BF2A46DFF840328F
:1017900027E0DFF840C263451CD0DFF83CC2634558
:1017A0001AD0DFF838C2634518D0DFF83472BB4274
:1017B0000EBF2A46DFF82C52AB4210D0DFF8285279
:1017C000AB4208BF4FF4801209D0B34207D14FF0AB
:1017D000807204E0012202E0102200E03A46DFF8C5
:1017E0000C321A60012280F8212080F8204009681C
:1017F00001B188472046F2BD2DE9F84F00F12802DB
:1018000004275169734BD1F800E004686C492568DE
:101810009669DFF8BC81DFF8B491DFF8ACA1DFF89E
:10182000A4B1DFF888C1B7401EEA070F4AD06F079E
:1018300048D52568AD0603D4256825F00405256044
:101840004FF4802407688F424FF480454FF4806640
:1018500011D9674508BF04240AD05F4508BF40245A
:1018600006D0574508BF344602D04F4508BF2C4626
:10187000C8F8004020E09F4217D0574B9F4216D037
:10188000564B9F4215D0564B9F420EBF2C46554B90
:101890009F420FD0544B9F4208BF4FF4800409D0A1
:1018A0008F4207D14FF0806404E0042402E040241A
:1018B00000E034464D490C605168002974D0BDE801
:1018C000F44F08470227B7401EEA070F4FD0AF0773
:1018D0004DD52568AD0606D4256825F00A05256096
:1018E000012480F821404FF4003407688F424FF400
:1018F00000554FF4007611D9674508BF02240AD07D
:101900005F4508BF202406D0574508BF344602D0A3
:101910004F4508BF2C46C8F8004020E09F4217D032
:101920002D4B9F4216D02D4B9F4215D02C4B9F42E2
:101930000EBF2C462B4B9F420FD02B4B9F4208BF14
:101940004FF4001409D08F4207D14FF0007404E027
:10195000022402E0202400E0344624490C600021E7
:1019600080F820101168F9B1BDE8F44F084708214C
:1019700001FA06F61EEA060F16D0290714D52168CB
:1019800021F00E012160012391698B4051694B6068
:1019900001230021136180F8201080F82130916824
:1019A00011B1BDE8F44F0847BDE8F18F08040240CB
:1019B000F8FFFDBF00000240F8FBFDBF000402403D
:1019C000800002401C0402403004024044040240F3
:1019D00004040240080002401C00024030000240A3
:1019E00044000240580002406C00024004000240E3
:1019F00038B5046C0125A540C46B6560046863605C
:101A00004068102802D1A260E16031BDA160E260AF
:101A100031BD7047704700002DE9F84F00F088FC99
:101A200000F0DBF800F096FC00F004FD00F031FD62
:101A300000F00CFE00F015FEFFF7F8FA00F0D4FEFF
:101A400000F044FF00F050FD00F07DFD00F002FDCD
:101A500000F006F900F0D4FF00F0C3FA01F0F9F845
:101A600001F043F9032001F099F9DFF82C06DFF8C3
:101A70002C56DFF82C66DFF82C76DFF82C86DFF8A2
:101A80002C96DFF82CA6DFF82C4601F004FADFF8DC
:101A9000280601F000FA4FF6FF7B01E001F0C6F9DD
:101AA00001F09EFC01F0A3FC01F03EFD207E012828
:101AB00024D100212176A07D20B9012200F088F8F0
:101AC00000F07FF8A07D022806D100F080F84FF4E6
:101AD0000051504600F0E9FBA07D032804D100F03E
:101AE00076F8012200F06EF8A07D052806D14FF4AB
:101AF0008051504600F0D9FB00F063F8207C0128AB
:101B000003D10021217401F05BFD01F05DFDE07D5A
:101B1000012804BFA17D032908D10020E07560746D
:101B2000E061A0740420A07500F02FFA207D012848
:101B30000DD100212175A07D022806D10321A175B8
:101B40000020A9F80000A8F8000000203880607D7F
:101B500001280CD1002161753170607C022804BF1E
:101B6000617400F01CFA01F043F800203880607EB8
:101B7000012803D101F016F900216176307801289F
:101B80008CD000F0A6FF00F0DDFFE07C012804BF50
:101B9000A17D022984D10020E0743888285C00F0FF
:101BA00091FF3A88A85C594601F0B6F83888401C85
:101BB000388080B2B0F5967F02DB40F22B1038807F
:101BC0006EE700224FF40051504600F068BB00223F
:101BD0004FF48051504600F062BB00B5002195B033
:101BE00001200D910B90022112914FF480300C9046
:101BF000012213904FF4E0110F9214910BA8FFF7FC
:101C000077FA00B1FEE70F21022000910190002138
:101C10004FF4806002910390049168460221FFF71F
:101C2000F5FB00B1FEE7022005904FF4004107915B
:101C300005A801F001FD00B1FEE7FFF795FC4FF4A8
:101C40007A71B0FBF1F001F0AEFD042001F0BFFDB0
:101C5000002200214FF0FF3001F07EFD15B000BDE5
:101C600080B500220021122001F076FD122001F043
:101C700090FD00220021252001F06EFD252001F0BD
:101C800088FD002200211D2001F066FD1D2001F0CD
:101C900080FD002200211E2001F05EFD1E2001F0CB
:101CA00078FD00220021322001F056FD322001F0A3
:101CB00070FD00220021362001F04EFD362001F09B
:101CC00068FD002200210B2001F046FD0B2001F0F1
:101CD00060FD002200210F2001F03EFD0F2001F0E9
:101CE00058FD00220021102001F036FD102001F0E7
:101CF00050FD00220021212001F02EFD212001F0C5
:101D000048FD00220021222001F026FD222001F0C2
:101D100040FD00220021262001F01EFDBDE802400A
:101D2000262001F036BD2DE9F84FDFF86C2300685E
:101D30001168DFF88843DFF87C53DFF88483DFF82D
:101D400084A3DFF88463DFF86893814240F08980E0
:101D50000821484600F09DFADFF87073DFF840B3C1
:101D60003870002804BF7878002831D1F878401CFA
:101D7000F870C0B2397981422DD201207070B870EC
:101D80000020F870F078012825D1504601F08EF837
:101D9000DFF83C0301F047FE00F085FE404601F00D
:101DA00085F80020A8757080012068750020E07219
:101DB0009BF8001079B9C749087860B1727E521C4F
:101DC0007276707E032806DB002272760A7002E0CB
:101DD000002070707880102138787870484600F0C4
:101DE00058FA3872002804BF787A002833D1F87A7C
:101DF000401CF872C0B2397B81422FD20120B872E8
:101E00000020F87201203070F07848B900F04BFEE5
:101E1000B148002101700120F070B170A8742875DC
:101E20009BF80000D0B9317A01290CD100F03BFEBB
:101E3000002030720120A8740320A87500209B495F
:101E4000994A08801080687C012807D10421A9756F
:101E50000220687402E0002030707881387A78724D
:101E600091E0D8F8001081425AD1307E401C307683
:101E7000307E042803DD0121E97400203076102132
:101E8000964800F006FA2870002804BF68780028F9
:101E900010D1A978002976D1E8782979401CE8701A
:101EA000C0B281426FD20120A8700020E8700120EA
:101EB000207326E0A87828B10121E975002020735D
:101EC00001F07EFB002068804FF480412878687024
:101ED000484600F0DEF92872002804BF697A00291C
:101EE00013D1A87A00284ED1E87A297B401CE872E9
:101EF000C0B2814247D20120A8720020E8720120BE
:101F00006073BDE8F14F01F05BBBA87A012804D1F2
:101F10000021A972617301F053FB0020E87232E0E6
:101F200065490A68824227D1012068760A22F06951
:101F3000B0FBF2F20A2101FB120008B90120287659
:101F4000F069401CF061F069B0F57A7F03D301219C
:101F500029740020F061A87C012814D1E969491C8A
:101F6000E96140F25921E86988420CD30121697482
:101F70000020E861A87406E0DAF80010814202D17E
:101F8000BDE8F14F46E0BDE8F18FE0B500F021F883
:101F900000F019F80021E3208DF8041008E0E0B506
:101FA00000F017F88DF8040000F00DF80121E22090
:101FB0008DF802108DF805004FF6FF720721684674
:101FC00000F0C5FE07BD8DF801105D208DF80600FC
:101FD00070475B208DF80000E32100208DF803009E
:101FE00070473A4800214172418113210173002159
:101FF000417041801321017100212E4841704180C0
:1020000019210171002181600A21017300210175EC
:10201000417570472748817D052900D0704730B54C
:10202000002000222E4983B251F823309A18401C18
:1020300083B2202BF7DB2B49264C1B4B52090A801D
:102040000A88207890B9284D284C2888904234BFBF
:10205000101A801A2080264824880588A54203D2B9
:102060001C88641C1C8001E0002018801B880F481D
:10207000032B0BDA0488812CA4BF00230380038880
:102080005C1C04801B4820F8132001E00022028021
:102090000020088030BD000058090020000000200A
:1020A000620B0020A00B0020880B00208A0B002070
:1020B000000C0140280B0020D8090020480B00200C
:1020C00098090020180A0020080B00208C0B002023
:1020D000D80A00207D0B0020610B00200010014079
:1020E00078070020840B0020800B00209E0B00202E
:1020F0007E0B0020440500207047FEE72DE9F84FD5
:1021000083460F46002080466A496B4A6B4B4FF06E
:102110000F094FF0010A3C680AFA08F606EA040EB5
:10212000B64540F0AE807C683CB3012C1AD0022C3E
:102130001DD0032C2ED0112C16D0122C1AD0604D8D
:10214000AC421CBF5F4DAC4217D05F4DAC421CBFD0
:102150005E4DAC4211D05E4DAC421CBF5D4DAC42F9
:102160000BD018E0F86816E0F868001D13E0F86876
:10217000083010E0F8680C300DE0B86808B90420A9
:1021800009E0012819BF0820CBF814600820CBF81B
:10219000106000E00020BEF5807F03D2DC464FEAED
:1021A000880404E0A8F108040BF1040CA400DCF896
:1021B000005009FA04F6B54300FA04F42C43CCF8B5
:1021C00000407C68E4005CD51C6844F001041C609D
:1021D0004FEA980C1D6805F001050095009C52F827
:1021E0002C604FEA880404F00C0409FA04F526EA8E
:1021F0000505394EB34508BF002618D0374EB34504
:1022000008BF012613D0364EB34508BF02260ED0B4
:10221000344EB34508BF032609D0334EB34508BF3B
:10222000042604D0314EB3450CBF0526062606FA17
:1022300004F42C4342F82C406FEA0E067C68E50358
:1022400004D50D684EEA05050D6002E00C683440C7
:102250000C607C68A5034C684CBF4EEA0404344013
:102260004C607C68E5028C684CBF4EEA0404344044
:102270008C607C68A502CC684CBF4EEA04043440F4
:10228000CC6008F10108B8F10F0F7FF644AFBDE84C
:10229000F18F8068084018BF0120C0B2704781B03C
:1022A00002B90904016101B07047C2685140C160C0
:1022B000704700000004014008000140181002406F
:1022C0000000111000001210000021100000221068
:1022D000000031100000321000080140000C0140E5
:1022E000001001400014014000180140001C014092
:1022F00038B50D4D0D4A297804464FF47A70B0FB7D
:10230000F1F11068B0FBF1F001F04DFA50B9102C6A
:1023100008D2002221464FF0FF3001F01DFAAC60D8
:10232000002032BD012032BD2C01002038010020E8
:1023300080B50748016841F010010160032001F0F9
:10234000FEF90020FFF7D4FF01F02CFD002002BDB4
:102350000020024078B52F482F4D304C85B00168E1
:1023600041F01001016042F2C606026802F010025C
:1023700004920499016841F020010160026802F0B2
:10238000200204920499016841F00401016002688E
:1023900002F00402049200220499016841F008014D
:1023A00001603146006800F0080004900498284657
:1023B000FFF775FF00224FF432412046FFF76FFF11
:1023C0000120022101900391009669462846FFF7FB
:1023D00095FE4FF4447000F025F82846FFF78EFE76
:1023E00044F2990000F01EF82046FFF787FE4FF4F4
:1023F000324000900121022001910390694620465D
:10240000FFF77CFE042000F00DF80548FFF776FE8C
:1024100006B070BD1810024000100140000C0140D1
:1024200000140140009000210120019102906946B2
:1024300070470000064881B0016841F00101016069
:10244000006800F001000090009801B0704700BFE4
:1024500014100240654838B5654C00F067F886B046
:10246000472060600020A0604F2000F036F810B1D7
:10247000422100F05EF800F029F810B1482100F088
:1024800058F800F059F810B14F2100F052F807B099
:1024900030BD584838B5584C00F048F886B0472051
:1024A00000F06BF800F019F810B1612100F041F86C
:1024B00000F00CF810B1672100F03BF800F03CF898
:1024C00010B16E2100F035F807B030BD4FF48050E8
:1024D000029002A9204600F0B6BDE0600020206115
:1024E000A061204600F0CABC444838B5444C00F016
:1024F0001DF886B040F2CF2060600020A06040F25E
:10250000CF70FFF7EAFF10B1802100F012F8FFF75B
:10251000DDFF10B1862100F00CF800F00DF810B1CD
:102520008D2100F006F807B030BD000038A520600E
:1025300070472846FFF7E1BD0020009001906946F2
:10254000204601F073BC3EB52E4C2F48FFF7EEFF3E
:1025500040F2CF2000F011F8E0600020A06120469A
:1025600000F08CFC10B19D21FFF7E3FFFFF7E4FFC3
:1025700010B1A421FFF7DDFF37BD60600020A0602F
:1025800040F2E730704781B00068184A1F49904216
:1025900007D1086840F002000860096801F00201F4
:1025A0001FE0144A904207D1086840F00400086018
:1025B000096801F0040114E0104A904207D108684C
:1025C00040F008000860096801F0080109E00E4ABF
:1025D000904208D1086840F010000860096801F0D6
:1025E00010010091009801B0704700000004004005
:1025F000580900200008004098090020000C004005
:10260000D8090020180A0020001000401C100240C9
:10261000463A5C55736572735C626572747A5C44A9
:102620006F63756D656E74735C4769744875625C41
:1026300042535076322E325C42535076322E325C08
:102640005372635C74696D2E6300000080B54F485F
:102650004F4900F011F818B1BDE8044046211BE0D5
:1026600001BD80B54B484C4900F006F818B1BDE8F3
:102670000440592110E001BD01604FF4E131416097
:1026800000218160C16001610C21416100218161F3
:10269000C16101F0F1BB000044A0FFF72EBD0000B6
:1026A0002DE9F841044685B02068394A3FA53B4EE4
:1026B0003B4FDFF8F0803C49904226D1086840F457
:1026C000804008600222096801F4804104914FF4BF
:1026D000007100F051F84FF4806000F045F80020E0
:1026E0007060B06037608020F06000203061706101
:1026F000B061F0613046FEF77BFF18B184212846B7
:10270000FFF7FBFC666374622BE0234A904228D1FA
:10271000486840F4003048600222486800F4003005
:102720000490042100F028F8082000F01DF807F1BB
:10273000140070640020B064F064802030650020D4
:102740007065B065F065306606F14400FEF750FF35
:1027500018B1AF212846FFF7D0FC06F144006063B2
:10276000B46606B0BDE8F0810021009001910291AD
:1027700040466946FFF7C2BC0498009103200390CD
:10278000019269464046FFF7B9BC0000580A002094
:1027900000380140980A002000440040F006002064
:1027A000580002400008014018100240463A5C55AB
:1027B000736572735C626572747A5C446F63756D85
:1027C000656E74735C4769744875625C42535076F9
:1027D000322E325C42535076322E325C5372635C3E
:1027E00075736172742E630080B5254825490160B8
:1027F0004FF482714160002181604FF40061C1603B
:102800000021016141614FF4007181610821C161C2
:1028100000210162416281620A21C16201F038FE39
:1028200028B1BDE80440452119A0FFF766BC01BDF1
:1028300000681449884200D0704718B51248134CFC
:1028400085B0016841F480510160A021006800F466
:10285000805000900222009801910320049002927F
:1028600001A92046FFF74AFC402000210190029177
:102870000391204601A9FFF741FC06B010BD0000FE
:102880006808002000300140181002400008014094
:10289000463A5C55736572735C626572747A5C4427
:1028A0006F63756D656E74735C4769744875625CBF
:1028B00042535076322E325C42535076322E325C86
:1028C0005372635C7370692E630000003EB5374C31
:1028D000374800BF3BA520604FF48070A060012006
:1028E000E060002060614FF46020E06100206060E3
:1028F00002202061204600F087FF18B14A212846B7
:10290000FFF7FBFB0D2000900121072001910290B1
:102910006946204601F028F918B154212846FFF7EE
:10292000ECFB022001906946204601F01DF918B128
:102930005C212846FFF7E1FB37BD000030B50446B7
:1029400085B020681A4988422DD11A481A4D01686D
:1029500041F4007101600821006800F400700090EB
:102960000322009815480191029201A9FFF7C6FBC6
:1029700000206860A8608020E8604FF40070286143
:102980004FF4006068612020A86100200C49E861D4
:1029900029602846FEF72CFE18B1802109A0FFF718
:1029A000ACFB25626C6205B030BD0000D80A002087
:1029B00000240140181002401409002000100140BA
:1029C00008000240463A5C55736572735C6265723A
:1029D000747A5C446F63756D656E74735C4769747B
:1029E0004875625C42535076322E325C42535076C8
:1029F000322E325C5372635C6164632E63000000AC
:102A000010B501224FF400416C486D4CFFF747FCB4
:102A1000012240212046FFF742FC012200F00BF882
:102A200068480121C17000218170012101720020DC
:102A300010BD634C002280212046FFF730BC00F01F
:102A40003CF8002240212046FFF729FC002010BD61
:102A500070B504462000594D594E0AD100F019F8BE
:102A6000002200F01BF800F00FF87821002001F0A0
:102A700051FD012C06D100F00CF8012200F00EF8F7
:102A800000F002F8002070BD002240213046FFF720
:102A900006BC002280213046FFF701BC4FF4004104
:102AA0002846FFF7FCBB10B5454C0122FFF7C3FFDA
:102AB000012200F002F80122C4E74FF400413F4830
:102AC000FFF7EDBB80B50146002001F023FD00209B
:102AD00002BDF8B53C488178012931D0394C617884
:102AE000002904BF207800282AD1A078374D01287A
:102AF00004BFE17801291AD13548364F008839885A
:102B0000354E88423CBF012030703178012917D101
:102B1000324800F0CBF90021A170FFF7C4FF304923
:102B200000200880388001212970307008E00028DA
:102B300001BF04202870207A012804BF00212172DF
:102B40000020F2BD10B51F488178012933D01F4CF9
:102B50002178012913D10278012A01D1032029E02B
:102B600081700021C1700020FFF772FF3220FFF753
:102B7000A9FF022020701B4800F08DF91BE021788E
:102B8000042918D14278012A02D10020207010BDFA
:102B900001218170C1700120FFF75AFF5620FFF715
:102BA00091FF20221049114800F0C0FE0B4800F0B0
:102BB00072F905202070002010BD0000000C0140BB
:102BC00000100140080B0020280B00203E0B0020C5
:102BD000860B0020880B00207C0B0020180A0020A8
:102BE000840B00209809002078070020D80A0020D4
:102BF0007CB5002000211D4D82B235F812205118FD
:102C0000401C82B2802AF7DB194CC909A1804FF61B
:102C1000FF76A0881749888000F0D2FC32464FF436
:102C20008071284600F093F8AA208DF80000324603
:102C3000A0888DF80200010AAA208DF801108DF8F5
:102C400003000421684600F082F80020E081A081A2
:102C500076BD07482021418010214181012141702A
:102C600000210170C181818000207047440500204F
:102C70007C0B0020480B00201CB500680168CA06C8
:102C800009D5002000903F4C00F016F8606B0168F9
:102C900048683D4919E013BD1CB500680168CA06C3
:102CA00009D500200090394C00F006F8606B0168EF
:102CB0004868374909E013BD206801680091406801
:102CC00000902046009901F0B5B9C0F50070488029
:102CD00002B0087840F0010001F8040B4FF40072D4
:102CE0002046BDE8104001F05CB980B5254800F0F1
:102CF0000BF8284901F055F900220221FFE7264888
:102D0000FFF7CDFA002002BD0168CA6842F0100248
:102D1000CA604FF40072704738B58DF800000C4659
:102D20001D4D012202212846FFF7B9FA2346012250
:102D30006946144801F0DCF80446002202212846C6
:102D4000FFF7ADFA200018BF0124204632BD70B550
:102D500004460D46104E012202213046FFF79FFA2D
:102D60004FF6FF732A462146064801F0C1F8044693
:102D7000002202213046FFF792FA200018BF0124FA
:102D8000204670BD580A00203C010020980A00200F
:102D90004003002040010020001001403349087129
:102DA000002070471CB580213148304CFFF771FA84
:102DB0000128E37804BFA17801290DD162797AB99D
:102DC000A17969B15B1C2179DAB2914208D2012163
:102DD00000236171A37103E0002301216371A171DC
:102DE000A070E370607900B32249234A4B78887859
:102DF000012B08BF00280AD00978012904BF002848
:102E0000032008D02178012908BF002801D1022021
:102E100001E0012808D12070D07200F0D1FB012020
:102E200060700020607116BD002016BD0F4810B5FF
:102E30000178104C012904D015D303290AD005D3F9
:102E400011E0FFF730FE0021A1700CE00120A0701E
:102E5000002001E00120A070E070FFF7F9FD3C21A7
:102E6000002001F057FB002010BD0000610B002086
:102E7000000C0140080B0020480B002038B504006E
:102E800001D1012032BD00F036F818B900F02FF85A
:102E9000FFF779FB21E00068C16841F00101C160E2
:102EA000026842F0010202600020704781B00068B1
:102EB000C16849084900C16041F21112016A11421A
:102EC00002BF016A40F24442114203D103685B0829
:102ED0005B000360002001B0704702206870211D74
:102EE000206800F01BF901206870002032BD00212D
:102EF00029702046704704F13C056878704710B58A
:102F00000446206801698A0715D5C1688A0712D569
:102F10006FF00202026101212177806910F0030F36
:102F2000204602D001F00CFB03E001F00AFB00F0A8
:102F300087F800202077206801694A0715D5C16805
:102F40004A0712D56FF004020261022121778069DD
:102F500010F4407F204602D001F0F2FA03E001F0C5
:102F6000F0FA00F06DF800202077206801690A0768
:102F700015D5C1680A0712D56FF008020261042155
:102F80002177C06910F0030F204602D001F0D8FA73
:102F900003E001F0D6FA00F053F800202077206813
:102FA0000169CA0615D5C168CA0612D56FF01002AC
:102FB000026108212177C06910F4407F204602D0C9
:102FC00001F0BEFA03E001F0BCFA00F039F800208D
:102FD000207720680169CA0708D5C168CA0705D5E6
:102FE0006FF0010202612046FEF79DFE2068016934
:102FF0000A0608D5C1680A0605D56FF0800202618D
:10300000204601F09FFA206801694A0608D5C16888
:103010004A0605D56FF040020261204601F093FA9E
:10302000206801698A060AD5C1688A0607D56FF04B
:10303000200202612046BDE8104001F085BA10BDB3
:10304000204601F082BA38B500F05DF801D10220C7
:1030500032BD01222270022060702A68DFF8300140
:103060009368034093600868002837D0102837D051
:10307000202837D0302837D040282BD050281ED0D9
:10308000602820D070280BD0B0F5805F03D0B0F559
:10309000005F0CD02CE028688168C908C9000CE0EA
:1030A00000F028F82868816841F0770105E000F019
:1030B00021F82868816841F48041816018E000F0BF
:1030C0001EF8502111E0CA684968286800F07BF8B2
:1030D00060210AE000F013F8402106E0002104E03E
:1030E000102102E0202100E03021286800F07DF866
:1030F0000FE00000CB684A68896828687DE0CA68EC
:103100004968286850E0054605F13C04207801280C
:103110007047012060700020207032BDF0B5DFF8EC
:1031200074C01D4F03681D4C1D4D1E4E604518BFD9
:10313000B84208D0B0F1804F18BFB04203D0A842C7
:1031400018BFA0420DD14A6823F0700313436045B5
:1031500018BFB84207D0B0F1804F1CBFB042A842A0
:1031600001D0A04203D1CA6823F4407313434A69D3
:1031700023F080031343036060458A68C2620A68D3
:10318000826212BFB8420969016301214161F0BD49
:103190008800FFFF002C014000340140000C00407B
:1031A000000800400004004010B5036A046A640887
:1031B0006400046223F00A03846924F0F00444EA02
:1031C0000214846123E010B5036A23F01003036244
:1031D0008369046A23F4704343EA023324F0A004B1
:1031E000836144EA0114046210BD826822F0700217
:1031F000114341F007018160704710B5846824F4E1
:103200007F442143114341EA0321816010BD1943EA
:10321000016210BD10B502460123107802E0145D72
:1032200060405B1C9CB28C42F9D3C0B210BDF8B5B3
:103230001546044628780F46C1071E462AD500F0D9
:10324000FE002870687900F0F000A02823D1387DB6
:1032500006281FDA28795B2804BF6A7A5D2A19D10B
:103260000321681DFFF7D6FF297A884212D1397DE4
:1032700068797854791D3A7DA879885407F10A0154
:103280003A7DE87988540120397D3944C873387D06
:10329000401C387599E0607A0028FBD1207AA2881A
:1032A00090422ED268B3002768888742F2DA281D40
:1032B000227AC05D711D8854217AA088491C217230
:1032C000C9B288421AD1691DC95DA170A91DC95D25
:1032D0005D2976D1C01DE080C11E89B2701CFFF748
:1032E00099FFA17881426CD1227A711D8854B11D59
:1032F000227A5D208854E660012060727F1CBFB294
:10330000D2E7E088002860D129795B295ED168790D
:103310002070A8796070297AE87901EB0021A180FA
:10332000A088A8B9A97A5D2950D1687AA070042133
:103330000720E0805B20307000F049F8701CFFF738
:1033400069FFA17881422CD15D20B071717135E0A7
:10335000052701E07F1CBFB26888874235DA281D47
:10336000C05DF055A188207A401CC2B29142207203
:10337000F0D105F10A01C0B2085C5D2803D000213C
:10338000A1802172E180681DC05DA070A088C01D71
:10339000E080C11E89B2681DFFF73CFFA178814221
:1033A00002D00020E080F2BD5B203070711C00F084
:1033B0000EF8A078C855B11C5D20C8550120607278
:1033C00003E000202072A080EBE70020F2BD20780F
:1033D00070706078B070E879F070287A307170475A
:1033E0007248734A00F12C0300F114011FE7F8B58D
:1033F0006E49487A0022002800F08E8000256D4B2F
:10340000E8B2185C002800F089806D1CE8B2102832
:10341000F6DB87E00E78684C6019FF2706F0F00CA9
:10342000BCF1B00F0CD0BCF1C00F1FD0BCF1D00F5D
:103430002DD0BCF1E00F46D0BCF1F00F45D052E0EA
:10344000AB27B22E077011D14E78012E02D0AC25D9
:10345000057034E00227077480F85060012008747A
:103460004D745855187C401C187440E0AC27C12E90
:10347000077002D1012606741DE0C22E01D102267A
:1034800002E0C32E1BD103260674012613E0AD27EC
:10349000D02E077013D102744E78012E08D0022E60
:1034A00008BF80F8206006D0032E18BF042E06D176
:1034B00080F8206002265E551D7C6D1C1D7401265F
:1034C00080F8506010E0AE2600E0AF26067007746A
:1034D000012680F8202080F8506002205855187C82
:1034E000401C187400E00422087C012811D14D7C96
:1034F000324E307830B9012737702034585D0026BD
:10350000265402E02034012666550220585500203A
:1035100008820020088148601046F2BDEDB2FF2D00
:103520007FF478AF0020F2BDFEB5224D287C002844
:1035300039D05B215D208DF800108DF80500002743
:103540004FF6FF76E85D02282AD11B49CC19217875
:103550008DF801100321207C8DF8020094F82000E2
:103560008DF803000DF10100FFF754FE8DF8040003
:1035700094F85000012807D1002184F850103246F9
:1035800006216846FFF7E3FB94F85000022804BFC9
:10359000002184F850100020E855287C411E297431
:1035A0007F1C102FCEDB0020FEBD00004406002053
:1035B0003C010020680B0020F80700203E0B002093
:1035C0001C4901200876704710B51A4C207E01284E
:1035D00088B02BD15B21D2208DF800108DF801002E
:1035E000002101208DF802008DF8031018205D21C4
:1035F0008DF804008DF81E10182221460DF10500EB
:1036000000F0A4FF9DF8010001210DF101028BB231
:10361000491CD25C50408AB21C2AF6D38DF81D009A
:103620004FF6FF721F216846FFF791FB00202076BE
:1036300008B010BD480B00202DE9FC410646354D71
:103640003078C10750D5A8690024C10009D4A86901
:1036500040F08050A8610124A86900F080500090DB
:1036600000982D4F3968C80517D4386840F4807029
:103670003860FDF7AFFF80463968C8050DD4FDF707
:10368000A9FFA0EB08006528F6D303203FE0FDF773
:10369000A1FFC01B404519D3F7E7E86910F440705B
:1036A0001EBF716801F44071884212D01B49E8695D
:1036B00001220A6020F4407000220A60E861C0071D
:1036C00007D5FDF787FF074641F28938E86981078A
:1036D000DDD5E969706821F440710143E9611CB1ED
:1036E000A86920F08050A8613178880705D52A683C
:1036F000B06822F4404202432A603078C10605D502
:103700002968706921F48001014329600020BDE827
:10371000F681000004100240007000404004424264
:103720000901020081B006D52F4A00F00F001044B5
:1037300000F8041C01E02D4B195401B070472C4ACD
:1037400013684FF6FF0100020B4000F4E0601843DD
:10375000284908431060704738B5254B1C68C4F3EE
:103760000223C3F10704052C28BF04241D1D072DC7
:1037700034BF0023DB1E012505FA04F4641E21403A
:10378000994005FA03F35B1E1A401143BDE834402B
:10379000C6E7012200F01F01174BFFE78A404009EE
:1037A00043F82020704710B5401EB0F1807F01D350
:1037B000012010BD114C60600F214FF0FF30FFF76A
:1037C000AFFF0022A26007202060002010BD042867
:1037D0000A4904D1086840F00400086070470A688C
:1037E00022F004020A60704718ED00E000E400E0F7
:1037F0000CED00E00000FA0500E100E010E000E060
:1038000000F000B870470000F8B504460027002615
:10381000002C7AD004F12405686820B9AE602870C5
:103820002046FFF78BF8204600F066FA6968CA0662
:103830006CD401006AD1696821F4885141F0020119
:1038400069602368DFF88814E269D4F804C08B4209
:1038500004BFB2F5402F4FF40022E16842EA0C02A7
:10386000D4F808C0BCF5807F14BFBCF1010F4FF441
:103870008077D4F814C0BCF1010F42EA41020FD1A5
:1038800031B9A169491E490341F400610F4307E0C2
:10389000696841F020016960A96841F00101A960EF
:1038A000596821F469410F435F602368DFF82414ED
:1038B0009F680F4017439F60A168B1F5807F18BFD4
:1038C000012902D12669761E36052168CB6A23F4C8
:1038D00070031E43CE622468DFF8FC13A3680B401C
:1038E000934208D10021A960696821F0020141F0EA
:1038F00001016960F2BD686820F0020040F010002C
:103900006860A86840F00100A86003E0686840F0C3
:10391000100068600120F2BD044604F124052878F7
:10392000012870470121297020469BE12DE9FC47C1
:10393000044689462068DFF8B413DFF8A883DFF86F
:10394000A873884218BF4045924603D1386810F4E6
:10395000702F64D1FFF7E1FF08BF022061D0FFF7AD
:10396000E1FF0028064657D16968DFF8740301407B
:1039700041F4807169602068404518D1396811F4BC
:10398000702F14D0686840F480106860396848056A
:1039900005D5686820F4005040F48050686068687D
:1039A000C10446BFA86820F00600002006E0696850
:1039B00021F48011696040684105E9E7A860534639
:1039C00000202870216A0FF275308862216A0FF298
:1039D000B530C862216A0FF2B53008636FF002009B
:1039E000226810604A462068816841F480718160D5
:1039F000206800F14C01206AFDF73DFE20688168D7
:103A000001F46021B1F5602F81680CBF41F4A00181
:103A100041F48011816003E00020287000E001265D
:103A20003046BDE8F68738B500F01CF801D1022019
:103A300032BD00F01DF8010011D12868816821F421
:103A400080718160286AFDF750FE0100616806BF41
:103A500021F4885141F0010141F0400161600022F0
:103A6000227032BD054605F12404207801287047F4
:103A70000121217028463FE110B5044621684868BD
:103A8000820622D50A6890071FD5A06AC20603D411
:103A9000A06A40F40070A06200F05AF804BFE06829
:103AA00000280BD14A6822F020024A60A06A20F464
:103AB0008070A062A06AC10400F050F82046FEF7B2
:103AC0001BFB21686FF0120008602168486802063D
:103AD0002BD50A68500728D5A06AC20603D4A06A6D
:103AE00040F40050A062886800F4E040B0F5E04F78
:103AF00008D04868420511D400F02AF804BFE068F5
:103B000000280BD14A6822F080024A60A06A20F4A3
:103B10008050A062A06AC10500F020F8204600F0A5
:103B200069FD21686FF00C000860206841684A0652
:103B30000DD50068C1070AD5A06A40F48030A062A4
:103B4000204600F058FD21686FF00100086010BDAC
:103B5000886800F46020B0F5602F704703D4A06A35
:103B600040F00100A0627047F8B50A46002100F15C
:103B7000240300911C78012C01D10220F2BD012503
:103B80001D701F27546815680668072C08D2641E2C
:103B900004EB8404D6F834C000F05EF8756312E0DC
:103BA0000D2C08D2E41F04EB8404D6F830C000F0DA
:103BB00053F8356307E00D3C04EB8404D6F82CC0C1
:103BC00000F04AF8F56207271668946805680A2E1F
:103BD00008D30A3E06EB4606D5F80CC000F036F8CE
:103BE000EC6006E006EB4606D5F810C000F02EF8B3
:103BF0002C611468102C18BF112C23D100683B4C89
:103C0000A0421AD13A48046825021BD4056845F43D
:103C1000000505601068102814D1304C354825681F
:103C2000B5FBF0F00A2250430090009800281EBF18
:103C3000009A521E0092F8D104E00121586840F029
:103C400020005860002018700846F2BDB7402CEAEA
:103C50000707B4403C437047A7402CEA0707A5403C
:103C60003D43704738B504460020009020688168C5
:103C7000CA072AD481681F4A41F0010181601748B0
:103C80000168B1FBF2F2009202E00098401E009041
:103C900000980028F9D1FDF79DFC05462168886849
:103CA000C10712D4FDF796FC401B0328F6D304F19C
:103CB00024000022416841F010014160816841F018
:103CC000010181600270012032BD002032BD000080
:103CD000003C0140FDF7E1FFFE0E1FFF3801002010
:103CE000FEF1FFFF002801400424014000240140B0
:103CF0000824014040420F0038B50446206881681E
:103D0000CA0719D58168490849008160FDF762FC3E
:103D1000054620688168C8070ED5FDF75BFC401B8F
:103D20000328F6D3A06A40F01000A062E06A40F0D9
:103D30000100E062012032BD002032BD416A8A6A82
:103D400012F0500F1BD1886A40F4007088620A6834
:103D5000906800F46020B0F5602F04BFC8680028A8
:103D60000AD18A6A22F480728A62886AC20403D401
:103D7000886A40F0010088620846FEF7BDB9096A0A
:103D80000A6B1047406A00F037BC0000406A816A45
:103D900041F040018162C16A41F00401C16200F05A
:103DA0002CBC000080B51F48016841F00101016092
:103DB000006800F00100009000980320FFF7BFFCAE
:103DC000002200216FF00B00FFF7C6FC002200214B
:103DD0006FF00A00FFF7C0FC002200216FF009001D
:103DE000FFF7BAFC002200216FF00400FFF7B4FCDB
:103DF000002200216FF00300FFF7AEFC002200213B
:103E00006FF00100FFF7A8FC002200214FF0FF3007
:103E1000FFF7A2FC0448016821F0E06141F0007165
:103E2000016001BD181002400400014030B500F1EE
:103E30003C031A78012A01D1022030BD01241C70F4
:103E400002225A700268546824F0700454600468B6
:103E500065680A68154365600268946824F0800408
:103E60009460026894684868044394600120587024
:103E70000020187030BD000038B5040001D10120C9
:103E800032BD00F022F808B900F023F800F013F872
:103E900000F024F8FFE7416100F001F832BD20682E
:103EA000C16841F40051C160002068602020687042
:103EB000A87000207047242068702068C16821F431
:103EC0000051C160204600F06EBA04F138056878F0
:103ED0007047002129702046FEF7E2BB2068016987
:103EE00021F4904101612068416921F02A01704765
:103EF0002DE9F843054605F138070C467878202867
:103F0000164698463CD1002C14BF002E012038D014
:103F10003878012834D001213970212000217960BE
:103F20007870FDF757FBAE848146EE8403E0296884
:103F300014F8010B4860E88C28B3E98C481EE8842B
:103F40004B46A868CDF80080B0F5805F0DD100F039
:103F500024F870B920882968C0F3080048602869EF
:103F6000002814BF641CA41CE5E700F016F8002824
:103F7000DDD0032005E0202078700020387000E0BC
:103F80000220BDE8F283CDF800804B46002240219C
:103F900000F005F80028EED0EBE70022802128464B
:103FA00067E138B5044604F138051346A87820289F
:103FB0003ED109B1180001D1012032BD2878012875
:103FC00036D001222A70A162A385002068602220D9
:103FD000A870626B0FF211209062626B0FF24120A9
:103FE000D062626B0FF2412010630020626B50635D
:103FF0000A462068011D606BFDF73DFB0020009024
:1040000020680168009142680092002200992A709D
:10401000C26842F48072C2602068416941F00101C7
:1040200041612068416941F040014161002032BD99
:10403000022032BD38B5044604F1390520684169D3
:104040002A78212A09D1090607D500F017F808B106
:10405000FDF74BFB204600F03EF9206841696A7885
:10406000222A09D1490607D500F00EF808B1FDF75C
:104070003CFB204600F038F9002032BD416921F0B8
:1040800080014161206B7047416921F0400141612D
:10409000606B704738B5044625682968EA686B6923
:1040A00011F00F0007D188065DD590065BD520463C
:1040B000BDE832402CE1D80702D412F4907F52D0F0
:1040C000C80705D5D00503D5E06B40F00100E063DB
:1040D000480705D5D80703D5E06B40F00200E06340
:1040E000880705D5D80703D5E06B40F00400E063EE
:1040F000080705D5D80703D5E06B40F00800E0635A
:10410000E06B00286ED0890604D5900644BF204697
:1041100000F0FEF820684069E16B0A0701D4400610
:104120001BD5204600F0E0F8206841694A060FD50B
:10413000FFF7AAFF60B10FF2CD114163606BFDF78D
:10414000EDFA00284ED0606B416BBDE83440084763
:104150002046BDE8324000F051BA204600F04EFA49
:104160000020E06331BD08062CD510062AD594F84E
:104170003900212836D1A168206AB1F5805F0DD1C0
:104180000188C1F308016960206918B9216A881C97
:10419000206207E0206A411C216203E0411C216289
:1041A00000786860E08C401EE08480B2D0B920685E
:1041B000C16821F08001C1602068C16841F0400100
:1041C000C16031BD48060DD550060BD5E86820F01A
:1041D0004000E860202184F839102046BDE83240D4
:1041E00000F00DBA31BD0000416A00680268930614
:1041F00013D40020C8850868C26822F48072C260A7
:10420000086842695208520042610868426922F017
:1042100040024261202081F83A00084600F0F0B9DF
:10422000406A00F0EEB9000038B5446A2068406981
:1042300004F139052978212906D1000604D500208A
:10424000E084204600F047F8206840696978222918
:1042500006D1400604D50020E085204600F044F851
:10426000E06B40F01000E0632046BDE8324000F013
:10427000C5B92DE9F041069C05460E4690461F46FD
:10428000286801683140B1420CBF01200020404540
:1042900017D114F1010FF3D024B1FDF79BF9C01B26
:1042A0008442EDD22868C16821F4D07100F00CF886
:1042B00005F1380020214170817000210170032038
:1042C00000E00020BDE8F081C1602868416949082C
:1042D0004900416170470168CA6822F0C002CA60A3
:1042E000202180F8391070470168CA6822F4907262
:1042F000CA6001684A69520852004A61202180F868
:104300003A107047406A0021C185C18400F076B937
:1043100080B590F83A10222943D18268B2F5805FC7
:1043200014D1826A016941B903685968C1F308016F
:104330001180826A911C816218E001684B6803F069
:10434000FF031380816A4A1C82620FE00169002921
:10435000816A04D14A1C82620268536805E04A1CE3
:1043600082620268536803F07F030B70C18D491E9F
:10437000C18589B299B90168CA6822F02002CA6071
:104380000168CA6822F48072CA6001684A695208EA
:1043900052004A61202180F83A1000F031F90020E3
:1043A00002BD022002BD2DE9F047044664252168C4
:1043B0000A69E06822F4405202430A611926CA6879
:1043C00031480240A0680243206902436069024309
:1043D000CA604A69A06922F4407202432B484A61CC
:1043E00081420ED1FDF7CBF80746FDF7C8F88046AD
:1043F000FDF7C5F88146FDF7C2F88246FDF7BFF824
:104400000DE0FDF7B4F80746FDF7B1F88046FDF77B
:10441000AEF88146FDF7ABF88246FDF7A8F806FB3B
:1044200009F9616889007743B7FBF1F206FB08F7E9
:10443000B7FBF1F3B9FBF1F7B7FBF5F705FB173362
:104440001B013233B3FBF5F3B2FBF5F203F0F003DB
:1044500003EB021306FB0AF74643B7FBF1F2B6FB88
:10446000F1F06421B0FBF1F005FB10252D01323590
:104470006420B5FBF0F0216800F00F00C3188B60DA
:10448000BDE8F08700000000F3E9FFFF00380140BD
:1044900010B5040001D1012010BD0020A06294F8E5
:1044A000510010B92046FEF7C3F9022184F85110DB
:1044B0002068016821F0400101606268A068A1697C
:1044C0000243E0680243206902436069024301F449
:1044D0000071E0690A430243206A0243A06A024372
:1044E00020680260A169606A090C01F004010143BF
:1044F000206841602068E16A01612068C16921F497
:104500000061C16100206065012084F85100002035
:1045100010BD000080B5084A0B0943EA0013137070
:1045200009014FF6FF73517000939821022303484D
:10453000FBF77AFE02BD00009C0B0020C0080020A3
:1045400070477047704770477047704762B38B077A
:1045500008D0521E11F8013B00F8013B00F0248006
:104560008B07F6D1830740F0208000BF103A07D3B5
:1045700030B4B1E83810103AA0E83810F9D230BCA5
:10458000530724BFB1E80810A0E8081044BF51F851
:10459000043B40F8043BD20724BF31F8022B20F83B
:1045A000022B44BF0B7803707047121F17D35B00B8
:1045B00009D151F8043B20F8023B1B0C121F20F8D4
:1045C000023BF6D20BE051F8043B00F8013B1B0A1A
:1045D00020F8023B1B0C121F00F8013BF3D238BF3E
:1045E000121D521E24BF11F8013B00F8013BF8D800
:1045F00070470000704770477047704770477047BA
:1046000070477047323436383A3C3E3F4143454666
:1046100048494B4C4E4F515253555657595A5B5C73
:104620005E5F6061626365666768696A6B6C6D6E28
:104630006F707172737475767778797A7B7C7D7D13
:104640007E7F8081828384848586878889898A8B1E
:104650008C8D8E8E8F90919192939495959697983C
:1046600098999A9A9B9C9D9D9E9FA0A0A1A2A2A36F
:10467000A4A4A5A6A6A7A8A8A9AAAAABACACADAEAF
:10468000AEAFB0B0B1B2B2B3B4B4B5B5B6B7B7B8F7
:10469000B8B9BABABBBCBCBDBDBEBFBEBDBDBCBC5B
:1046A000BBBABAB9B8B8B7B7B6B5B5B4B4B3B2B2A5
:1046B000B1B0B0AFAEAEADACACABAAAAA9A8A8A73A
:1046C000A6A6A5A4A4A3A2A2A1A0A09F9E9D9D9CD6
:1046D0009B9A9A9998989796959594939291919080
:1046E0008F8E8E8D8C8B8A8989888786858484833A
:1046F0008281807F7E7D7D7C7B7A79787776757408
:10470000737271706F6E6D6C6B6A696867666563F2
:104710006261605F5E5C5B5A595756555352514F08
:104720004E4C4B4948464543413F3E3C3A3836346F
:1047300001000000000000001000000000A24A0478
:104740007047FEE7FEE7FEE7FEE7704770477047F9
:1047500080B500F049F8BDE80140FFF751B81748AF
:10476000FDF74AB81648FDF747B81648FDF744B8B4
:104770001548FFF781B91548FEF7C1BB1448FEF78D
:10478000BEBB1448FBF720BE1248FBF736BF10B57E
:10479000114C2046FEF770FA04E010B50F4C20468D
:1047A000FEF77AFA2046BDE81040FFF773BC0C48CC
:1047B000FEF7A5BB0B48FEF7A2BB000014090020C2
:1047C000F006002034070020D80A002058090020F5
:1047D00098090020C0080020580A0020980A0020EC
:1047E000D8090020180A002002494A68087882186F
:1047F0004A6070472C0100200E49086840F0010013
:1048000008604A680C4802404A600B680B48034045
:104810000B60086820F4802008604FF41F004A688D
:1048200022F4FE024A6088604FF00060044908608C
:1048300070470000001002400000FFF8FFFFF6FE86
:1048400008ED00E000000000000000000102030489
:104850000607080919E050F8042BD30744BFA9F153
:1048600001039A18091F0023042942F8043BF9D2D6
:104870005FEA817C134604D54FF0000CA2F800C01B
:104880009B1CC90744BF0021197050F8041B002964
:10489000E1D1704710B450F8041B79B10268436845
:1048A00002440830DC0744BFA9F10104E31852F8C0
:1048B000044B43F8044B091FF9D1ECE710BC7047D7
:1048C00010B5074979441831064C7C44163404E08D
:1048D0000A68081D114488470146A142F8D110BD5D
:1048E00008000000280000006DFFFFFF680A0000BC
:1048F0003C010020000000009DFFFFFF3C01000084
:1049000004FDFFFF000000200000000000F00DF893
:10491000002801D0FFF7D4FFAFF300800020AFF3F1
:104920000080FDF779F800F002F80120704700F0F0
:1049300001B800000746384600F002F8FBE7000027
:1049400080B5AFF30080024A11001820ABBEFBE730
:10495000260002000148804701480047F947000847
:1049600065490008AFF30080AFF30080FFF7CEFF8A
:104970000000000001020304FFF7FEBFFFF7FEBFC7
:10498000FFF7FEBFFFF7FEBFFFF7FEBFFFF7FEBF5B
:10499000FFF7FEBFFFF7FEBFFFF7FEBFFFF7FEBF4B
:1049A000FFF7FEBFFFF7FEBFFFF7FEBFFFF7FEBF3B
:1049B000FFF7FEBFFFF7FEBFFFF7FEBFFFF7FEBF2B
:1049C000FFF7FEBFFFF7FEBFFFF7FEBFFFF7FEBF1B
:1049D000FFF7FEBFFFF7FEBFFFF7FEBFFFF7FEBF0B
:1049E000FFF7FEBFFFF7FEBFFFF7FEBFFFF7FEBFFB
:1049F000FFF7FEBFFFF7FEBFFFF7FEBFFFF7FEBFEB
:104A0000FFF7FEBFFFF7FEBFFFF7FEBFFFF7FEBFDA
:104A1000FFF7FEBFFFF7FEBFFFF7FEBFFFF7FEBFCA
:104A2000FFF7FEBFFFF7FEBFFFF7FEBFFFF7FEBFBA
:084A3000FFF7FEBFFFF7FEBF18
:040000050800496541
:00000001FF
