:020000040800F2
:100000005813002001350008693200086B320008DF
:100010006D3200086F3200087132000800000000E5
:100020000000000000000000000000007332000823
:1000300075320008000000007732000879320008AD
:1000400035350008393500083D35000841350008D0
:1000500045350008493500084D3500085135000880
:1000600055350008593500085D350008873200080D
:100070006135000865350008693500088D320008D3
:10008000933200086D350008993200087135000878
:1000900075350008793500087D3500088135000880
:1000A00085350008893500088D3500089135000830
:1000B000953500089F320008A532000899350008E0
:1000C0009D350008AB320008B1320008A1350008A8
:1000D000A5350008B7320008C3320008A93500086A
:1000E000AD350008B1350008B5350008B935000850
:1000F000BD350008C1350008C5350008C935000800
:10010000CD350008D1350008D7320008D5350008B4
:10011000D9350008DD350008DD320008E13500087A
:10012000E5350008E9350008ED350008F13500082F
:10013000F8B5040016D004F13C05687820B9002118
:100140002970204600F098FD00F066F801F019F8DB
:1001500001466068DFF8D020904205D2DFF8CC007D
:10016000814205D20120F2BDDFF8C4008142F9D3FB
:10017000DFF8C000B1FBF0F3206843606668964288
:1001800006D34FF4967043434FF47A76B3FBF6F3FD
:1001900027685B1C3B62491E6368934206D25B0082
:1001A00000F034F8042813D2042011E0A06820B92C
:1001B00003EB430300F02AF805E01920434300F065
:1001C00025F840F4804001050CBF012040F40040B8
:1001D0002168C861E269206A0243206802602169DF
:1001E000E0680143206881606169A069014320687B
:1001F000C1602068016841F0010101600020686071
:100200002020687000202063A870F2BDB1FBF3F0DD
:10021000401CC0F30B007047242068702068016800
:100220004908490001607047A186010080841E00D2
:1002300000093D0040420F00DFF80008E06270470F
:100240002DE9F84F044604F13D022168DFF8748976
:10025000D1F818904E694F685078DFF87C55DFF878
:1002600068A9DFF868B9DFF874C9102818BF4028FA
:100270006ED116F0011F04F144032ED0B8053ED50F
:100280005078402809D1D86818B91A6802F0FE02DF
:1002900021E0186840F0010026E02069B0F5804FA9
:1002A0000BD11278212A03D1186800F0FE001CE05F
:1002B0001A6842F00102D2B20DE0D86820B900F00D
:1002C000C6F842F0F00206E0D868012817D100F025
:1002D000BEF842F0F1020A6111E0DFF804090642BB
:1002E00005D0BA050BD51868C0B2086107E016EA58
:1002F0000C0F04D0B80544BF204600F07FFA19EA7D
:100300000B0F12D016EA0A0F07D0780505D52E423A
:1003100003D12046BDE8F24F0BE12E4245D0B8058F
:100320005CD52046BDE8F24F67E116EA080F07D01A
:10033000780505D52E4203D12046BDE8F24FA7E14E
:100340002E4232D0B80549D52046BDE8F24FF9E13A
:1003500016EA0C0F12D0B8051AD58A6989690020EF
:10036000530758BF01200A060146204654BFE268E1
:10037000A269BDE8F84F92B200F035BFDFF864081B
:10038000064205D0BB0503D52046BDE8F24FE9E2A1
:1003900019EA0B0F2CD016EA0A0F1CD078051AD5D3
:1003A0002E4218D11378608D00284ED0606A451C0B
:1003B00065620078086100F050F808BF292B44D12D
:1003C00000F051F821202063282010702046BDE85D
:1003D000F24F00F009BF2E4237D0B80535D5608DF9
:1003E000002832D0606A421C62620078086129E00D
:1003F00016EA080F1BD0780519D52E4217D11378AD
:10040000608D10B3606A451C65620969017000F077
:1004100024F808BF2A2B18D100F025F822202063E9
:10042000282010702046BDE8F24F00F0DEBE2E42BC
:100430000BD0B80509D5608D38B1606A421C626284
:1004400009690170608D411E6185BDE8F18F1A68F0
:100450001204D20D02F006027047608D411E6185C4
:10046000608D002870472068416821F480614160F8
:100470007047F8B50446DFF870172068456946688C
:100480000D420DD0F20518D5216C41F00101216417
:100490006FF4807242612068016841F4004101609C
:1004A00015F4813F09D0F0053CD5206C40F00200E6
:1004B00020646FF400712068416115F4823F24D0FC
:1004C000F0052FD504F13D004778618D0278236B4C
:1004D000202F08BF00290BD1212A18BF292A03D0B9
:1004E000282A08BF212B03D1204600F0A9FA0CE0EE
:1004F000216C41F0040121644078102801D100F002
:1005000067FB6FF480602268506115F4843F09D066
:10051000F00507D5206C40F0080020646FF40061FE
:1005200022685161206C18B12046BDE8F240C3E258
:10053000F1BD38B500F13D0213785478C56A018DDC
:10054000002908BF212B16D1042D1EBF082DDFF86E
:100550009C168D4202D000F07EF809E000F087F88A
:1005600004D10023537000F041FE44E0002151709B
:1005700000F03DFE3FE0212B03D0402C08BF222B92
:1005800039D1418D11B900F0D1F834E051784029CA
:100590002FD100F14803996889B900685968012989
:1005A00005D11A68D2B202619868801C05E019680A
:1005B0000904090E01619868401C98601BE0996865
:1005C000012907D11A680068D2B202619968491CF2
:1005D000996010E0996802290DD11378222B05D17A
:1005E0000068016841F48071016004E01278212AFA
:1005F00001D100F026F8002032BD10B5C36A00F129
:100600003D021478212C1AD1418D11B100F019F856
:1006100015E0042B1EBF082BDFF8D0158B4202D04B
:1006200000F019F809E000F022F804D1002353701B
:1006300000F0DCFD03E00021517000F0D8FD002047
:1006400010BD416A4A1C4262026809781161418DFD
:100650004A1E4285704701684B6823F4E0634B6093
:100660001121016300215170202111707047016830
:100670004B6823F4E0634B6001680B6843F400733C
:100680000B600021016320211170517840297047CF
:1006900010B500F13D010A78222A45D1428D042A85
:1006A00002D300F09BF83FE0022A18BF032A13D1BF
:1006B0000168C26A0B68022A08D023F480630B60C9
:1006C00001680A6842F400620A6002E043F4806351
:1006D0000B6000F02BF827E00268C36A022B04D0FD
:1006E000146824F48064146003E0136843F48063A6
:1006F000136000F021F8426A531C436203681C69CE
:100700001470428D531E4385002220230B70026318
:100710004A78402A04D100234B7000F069FD03E0C1
:1007200000224A7000F065FD002010BD006841689D
:1007300021F48061416070470268536823F4E063EC
:100740005360704780B5C16A438DDFF8A024032B46
:1007500007D104291CBF0829914237D100F0F3F8D2
:1007600034E0438D022B31D104291CBF082991426A
:100770000ED00268022904D0116821F48061116052
:1007800003E0136843F48063136000F031F806E07F
:1007900000F02EF801680A6842F400720A6000F066
:1007A0001DF800F01BF800F13D0120220A70002224
:1007B00002634A78402A04D100234B7000F018FDF0
:1007C00006E000224A7000F014FD01E000F006F897
:1007D000002002BD0000000004000100416A4A1C24
:1007E0004262026813690B70418D4A1E4285704750
:1007F00001684A6822F440724A60704738B500F1D7
:100800003D014A78C36A046B0D78222D40F0858043
:10081000016D002908BF402A02D1002200927EE02B
:10082000016D002904BF0269B2F5404F07D100F005
:1008300081F842F480720A60016D491C6BE0418DC1
:1008400011B9002200922BE0418D012933D1DFF84C
:100850009C2393420DD100F076F801684A68130595
:1008600010D4002200924B6900938A690092009B89
:100870001CE0042B1CBF082B122C0DD00168C26A8F
:10088000022A04D00B6823F480630B6040E00A68FE
:1008900042F480620A603BE000F055F800210091CC
:1008A00001684A6900928B690093009A0A6842F4D1
:1008B00000720A602EE00168428D022A1CD1C36AD0
:1008C000022B0AD00A6842F400620A60002100F09C
:1008D00031F822F480620A6005E00B6843F480631B
:1008E0000B6000F036F801684A68130512D54A68B3
:1008F00042F480524A600DE00B6843F480630B6061
:1009000001684A68130503D54A6842F480524A6078
:1009100000F01FF80021016504E00021009100684B
:1009200000F002F8002032BD41690091806900901A
:1009300000997047009101684A6900928B690093A1
:10094000009A0A68704701680A6822F480620A60A7
:1009500070470021009101684A69009289690091FD
:10096000009A70477CB500F13D02137801684C682D
:1009700024F4E0644C600021009101684C6900940B
:100980000D6845F001050D60009901680C6824F4BC
:1009900080640C60046861680D050DD51578222D02
:1009A0001CBF11782A2903D1856B29684E6802E0A3
:1009B000416B0D686E684685418DD1B165696907E7
:1009C00007D5416A4D1C456224690C70418D4C1E4F
:1009D000448501684C69650607D5446A651C456213
:1009E00009692170418D4C1E4485016C41F0040160
:1009F0000164016C11B100F05FF81CE0282B1CBFF2
:100A00002A2B292B0BD1DFF8E411C16200210163ED
:100A1000202111700021517000F0ECFB0BE0016B04
:100A2000222918BF222B06D1002303632021117035
:100A3000537000F0DAFB002076BD00000000FFFFDD
:100A400038B500F13D016FF480620B78C46ADFF8BD
:100A50009C51042C14BF082C282B15D1C5620368A7
:100A60005C6824F4E0645C6003685A61026814689E
:100A700024F4806414600022026320220A700022A1
:100A80004A7000F0B7FB15E0212B11D1C56203635A
:100A900020230B7000234B7001684B6823F4E06344
:100AA0004B6001684A61FFF74EFF00F09DFB01E0DB
:100AB00000684261002032BD38B5044604F13D05AE
:100AC0002878292818BF2A2804D10020206328204C
:100AD00028700BE02878602805D021684868010557
:100AE0005CBF2021297000202063687000F05CF852
:100AF000206841680A0523D5416821F400614160FE
:100B0000606B0FF2ED0190F82120012A09D04163BA
:100B1000606B00F007FC002829D000F04BF8606BF8
:100B20000BE0A06B4163A06B00F0FCFBF8B1206808
:100B300000F031F800F03EF8A06B416B884716E0FA
:100B4000297860290ED120222A700022226400F028
:100B500022F820680168490849000160204600F039
:100B60005CFD04E000F017F8204600F057FD2878FF
:100B700028280FD1216C48070CD5FFF75DFB00201A
:100B8000206320202870002068702046BDE8324095
:100B900000F030BB31BD41694A0604D5616A4A1C88
:100BA00062620069087070472068016821F4006182
:100BB00001607047206801684908490001602020F1
:100BC0002870704740000100800001000400100000
:100BD0002068016841F40071016070470200010063
:100BE0000800010010000100000101000000FFFFEB
:100BF000406A01680A6822F480620A600021418527
:100C0000426B5163826B516300F13D010B78602BA5
:100C10000BD120220A7000224A70026401680A681F
:100C2000520852000A6000F0F8BC20230B7000222A
:100C30004A7001680A68520852000A6000F0EEBC6F
:100C400080B51C481C4901601C494160002181603D
:100C5000C1604FF480410161002141618161C16146
:100C60000162FFF765FA30B1BDE804405FF0420170
:100C700015A000F009BE01BD00680F49884200D0F0
:100C80007047F8B54FF440610091122003210190A4
:100C9000039169460A4800F0F9FD0A48016841F4E9
:100CA00080010160006800F480000090009805B0A9
:100CB00000BD0000080D002000580040A086010083
:100CC000000C01401C100240453A5C55736572737C
:100CD0005C626572747A5C446F63756D656E747383
:100CE0005C4769744875625C42535076322E325CC0
:100CF00042535076322E325C5372635C6932632EFB
:100D0000630000002DE9F8430646DFF89C54307874
:100D1000C1074AD5686800F00C00042807D068684D
:100D200000F00C0008280BD16868C10308D52968B9
:100D300088033AD57068002840F0C080012069E13E
:100D40007068B0F5803F0FD038B9296821F4803140
:100D50002960286820F4802009E0B0F5A02F2968D8
:100D600007D141F480212960286840F48030286050
:100D700006E021F4803129602A6822F480222A606A
:100D8000706868B100F072FE04462968880300F1BB
:100D9000958000F06BFE001B6528F6D3032039E137
:100DA00000F064FE04462868810340F1878000F06B
:100DB0005DFE001B6528F6D3F0E700F057FE001B30
:100DC000022840F2AA80E9E7306970B10121396058
:100DD00000F04CFE04462868810700F1DC8000F03A
:100DE00045FE001B0228F6D9D8E7386000F03EFE29
:100DF00004462868810765D500F038FE001B0228EC
:100E0000F7D9CBE7086000F031FE0446686A810735
:100E100077D500F02BFE001B0228F7D9BEE708B9F2
:100E2000286A09E00528286A06D140F004002862F3
:100E3000286A40F0010005E0400840002862286A66
:100E400020F00400286241F28938F06868B100F0AF
:100E50000DFE8146286A810700F1AA8000F006FE97
:100E6000A0EB09004045F5D398E700F0FFFD81466F
:100E7000286A810740F19C8000F0F8FDA0EB090092
:100E80004045F5D38AE700F0F1FD001B022840F24F
:100E9000A28083E700F0EAFD001B022840F2B58043
:100EA0007CE700F0B9F804462868810140F1B18080
:100EB00000F0DCFD001B0228F6D96FE73078DFF880
:100EC000F47281071BD5686810F00C0F09D06868B0
:100ED00000F00C0008287FF477AF6868C1033FF585
:100EE00073AF2968880703D5306901287FF426AFDE
:100EF0002968706921F0F80141EAC0012960317860
:100F000008071DD5B069DFF8B01200283FF47AAFAA
:100F100001220A6000F0AAFD0446686A81077FF595
:100F20004CAFDFF888120868C0084FF47A72B0FB43
:100F3000F2F2009200BF0098411E00280091F9D102
:100F40003078410739D5E8690024C10009D4E8693F
:100F500040F08050E8610124E86900F08050009082
:100F60000098DFF85882D8F80010C8051BD4D8F8CC
:100F7000000040F48070C8F8000000F077FD814662
:100F8000D8F80010C8050ED400F070FDA0EB0900E1
:100F90006528F5D302E72868716920F0F80040EA77
:100FA000C1002860ABE7F06801287FF438AF3FE765
:100FB0001CB1E86920F08050E861F06948B36968C5
:100FC00001F00C0108293FF4B9AE02287FF469AFA3
:100FD00000F022F80446286881013FF554AF306ADA
:100FE000B0F5803F05D16968B06821F40031014354
:100FF00069606968306A21F474110143706A0143C1
:101000006960012000F009F80446286881017FF535
:1010100041AF0020BDE8F2830020386600F026BD15
:101020002DE9F843664F05463868894600F0070009
:10103000484502D200F07AF86CD129785A4C8807DA
:1010400005D56168A86821F0F00101436160287846
:10105000C10757D56868012802D121688A0303E0D7
:10106000022803D121688A0103D453E02268910742
:1010700050D56168890840EA8100606041F2893892
:1010800000F0F4FC0646686801280BD1606800F0A7
:101090000C00042836D000F0E9FC801B4045F5D355
:1010A00003202DE0022837D1606800F00C000828EA
:1010B00028D000F0DBFC801B4045F5D3F0E7287812
:1010C000410705D56168E86821F4E061014361608A
:1010D0002878010706D56068296920F4605040EA45
:1010E000C100606000F02CF862683649C2F3031258
:1010F000895C2E4AC8401060002000F0BDFC002032
:10110000BDE8F283386800F007008145D7D200F0CF
:101110000DF8D4D00120F3E7606810F00C0FF1D087
:1011200000F0A4FC801B4045F6D3B9E73968C90834
:1011300049EAC1013960386800F007004845704746
:1011400021491B480A6802F00C03082B00D07047A5
:1011500010B500BF1FA4C2F38343D203E35C09D5DB
:10116000096800BF1FA2C1F340415843515CB0FB66
:10117000F1F010BD18461549484310BD0B480068F2
:1011800070470A48104A006813681149C3F30222E5
:1011900006E006480C4A006813680D49C3F3C222F2
:1011A000895CC84070470000001002400C0000201D
:1011B00000127A0000004242800442420070004067
:1011C00000200240F03300080410024000093D00F6
:1011D0002C35000802030405060708090A0B0C0D4C
:1011E0000E0F10100102704770477047704770472C
:1011F000704770477047000030B508B9012030BD16
:101200000268DFF8B0138A4200F1280306D2DFF843
:10121000A81300F02DF8DFF8A41305E0DFF8A01301
:1012200000F026F8DFF89C135961022180F82110A4
:10123000146841686FF30D140C4381680C43C16856
:101240000C4301690C4341690C4381690C43C1693A
:101250000C4314600021196059609960D9601961CC
:10126000012180F82110002180F82010002030BDDD
:101270008C181425B4FBF5F4A4009C617047F8B5F4
:101280000446002594F82000012801D10220F2BD77
:1012900094F821000126012884F8206024D1022638
:1012A00084F8216004F12C06F560206807687F0847
:1012B0007F000760204600F09FF92168306820B168
:1012C0000A6842F00E020A6008E0086820F0040094
:1012D00008602068016841F00A0101602068026826
:1012E00042F00102026002E084F820500225284604
:1012F000F2BD10B501680A6822F00E020A6000F122
:101300003C020B685B085B000B60012451688C4059
:1013100011684C600122002180F8212080F8201003
:10132000002010BDF8B590F821200024022A00F119
:10133000340103D00420486001245FE00268DFF834
:101340008862136823F00E0313604FF480770268FD
:1013500015686D086D0015604FF480320368B34264
:101360004FF4805519D9DFF84C62B34208BF01220F
:1013700010D0DFF85862B34208BF10220AD0DFF85D
:101380005062B34208BF3A4604D0DFF84862B34225
:1013900008BF2A46DFF8403227E0DFF840C2634545
:1013A0001CD0DFF83CC263451AD0DFF838C2634571
:1013B00018D0DFF83472BB420EBF2A46DFF82C5239
:1013C000AB4210D0DFF82852AB4208BF4FF4801276
:1013D00009D0B34207D14FF0807204E0012202E04D
:1013E000102200E03A46DFF80C321A60012280F841
:1013F000212080F82040096801B188472046F2BDCD
:101400002DE9F84F00F1280204275169734BD1F8F8
:1014100000E004686C4925689669DFF8BC81DFF854
:10142000B491DFF8ACA1DFF8A4B1DFF888C1B74010
:101430001EEA070F4AD06F0748D52568AD0603D4CA
:10144000256825F0040525604FF4802407688F4245
:101450004FF480454FF4806611D9674508BF0424D6
:101460000AD05F4508BF402406D0574508BF344620
:1014700002D04F4508BF2C46C8F8004020E09F42EC
:1014800017D0574B9F4216D0564B9F4215D0564B04
:101490009F420EBF2C46554B9F420FD0544B9F424C
:1014A00008BF4FF4800409D08F4207D14FF0806409
:1014B00004E0042402E0402400E034464D490C607E
:1014C0005168002974D0BDE8F44F08470227B7409F
:1014D0001EEA070F4FD0AF074DD52568AD0606D4DD
:1014E000256825F00A052560012480F821404FF485
:1014F000003407688F424FF400554FF4007611D93D
:10150000674508BF02240AD05F4508BF202406D0E3
:10151000574508BF344602D04F4508BF2C46C8F88F
:10152000004020E09F4217D02D4B9F4216D02D4BFC
:101530009F4215D02C4B9F420EBF2C462B4B9F42F7
:101540000FD02B4B9F4208BF4FF4001409D08F429D
:1015500007D14FF0007404E0022402E0202400E0F0
:10156000344624490C60002180F820101168F9B13C
:10157000BDE8F44F0847082101FA06F61EEA060FF7
:1015800016D0290714D5216821F00E01216001230E
:1015900091698B4051694B6001230021136180F8F0
:1015A000201080F82130916811B1BDE8F44F084750
:1015B000BDE8F18F08040240F8FFFDBF00000240C3
:1015C000F8FBFDBF00040240800002401C04024002
:1015D0003004024044040240040402400800024077
:1015E0001C0002403000024044000240580002400B
:1015F0006C0002400400024038B5046C0125A5408F
:10160000C46B6560046863604068102802D1A26002
:10161000E16031BDA160E26031BD704770470000FC
:1016200080B500F049FA00F01FF800F057FA00F01A
:10163000C5FA00F0F2FA00F0CBFB00F0D4FBFFF7A4
:10164000FFFA00F093FC00F003FD00F011FB00F046
:101650003CFB00F0C3FA00F04AF84FF480727B497B
:101660007B4800F021FEFEE700B5002195B0012087
:101670000D910B90022112914FF480300C900122B9
:1016800013904FF4E0110F9214910BA8FFF73AFB5F
:1016900000B1FEE70F2102200091019000214FF4DC
:1016A000806002910390049168460221FFF7B8FC24
:1016B00000B1FEE7022005904FF40041079105A814
:1016C00001F006F800B1FEE7FFF758FD4FF47A711C
:1016D000B0FBF1F001F0B3F8042001F0C4F80022EF
:1016E00000214FF0FF3001F083F815B000BD80B548
:1016F00000220021252001F07BF8252001F095F83B
:10170000002200211D2001F073F81D2001F08DF84A
:10171000002200211E2001F06BF81E2001F085F848
:1017200000220021322001F063F8322001F07DF820
:1017300000220021362001F05BF8362001F075F818
:10174000002200210B2001F053F80B2001F06DF86E
:10175000002200210F2001F04BF80F2001F065F866
:1017600000220021102001F043F8102001F05DF864
:1017700000220021122001F03BF8122001F055F860
:1017800000220021212001F033F8212001F04DF842
:1017900000220021222001F02BF8222001F045F840
:1017A00000220021262001F023F8BDE80240262077
:1017B00001F03BB8274900680A68824200D17047AF
:1017C00038B5254A136883421EBF24490B688342FB
:1017D0003AD0234A1368834236D122491B4B0A6808
:1017E000002053F82040A218801CB0F5807FF8DB61
:1017F0000A60D4091C491D4B1D4A0C801878B0B9E9
:101800001C481D4B04880D88AC4239BF0C880088E9
:1018100004880888241A19481C8000781B8898427C
:1018200003D213885B1C138001E000201080108815
:10183000134B38B91888421C1A800988114A22F8BB
:10184000101031BD0020188031BD000020040020A0
:10185000200F0020A00D0020E00D0020200E002011
:10186000600E0020500F00201A00002012000020FF
:101870001800002014000020540F00201000002049
:101880001E00002020000020FEE700002DE9F84F98
:1018900083460F46002080466549664A664B4FF0F6
:1018A0000F094FF0010A3C680AFA08F606EA040E2E
:1018B000B64540F0AE807C683CB3012C1AD0022CB7
:1018C0001DD0032C2ED0112C16D0122C1AD05B4D0B
:1018D000AC421CBF5A4DAC4217D05A4DAC421CBF53
:1018E000594DAC4211D0594DAC421CBF584DAC4281
:1018F0000BD018E0F86816E0F868001D13E0F868EF
:10190000083010E0F8680C300DE0B86808B9042021
:1019100009E0012819BF0820CBF814600820CBF893
:10192000106000E00020BEF5807F03D2DC464FEA65
:10193000880404E0A8F108040BF1040CA400DCF80E
:10194000005009FA04F6B54300FA04F42C43CCF82D
:1019500000407C68E4005CD51C6844F001041C6015
:101960004FEA980C1D6805F001050095009C52F89F
:101970002C604FEA880404F00C0409FA04F526EA06
:101980000505344EB34508BF002618D0324EB34586
:1019900008BF012613D0314EB34508BF02260ED032
:1019A0002F4EB34508BF032609D02E4EB34508BFBE
:1019B000042604D02C4EB3450CBF0526062606FA95
:1019C00004F42C4342F82C406FEA0E067C68E503D1
:1019D00004D50D684EEA05050D6002E00C68344040
:1019E0000C607C68A5034C684CBF4EEA040434408C
:1019F0004C607C68E5028C684CBF4EEA04043440BD
:101A00008C607C68A502CC684CBF4EEA040434406C
:101A1000CC6008F10108B8F10F0F7FF644AFBDE8C4
:101A2000F18F81B002B90904016101B07047000073
:101A3000000401400800014018100240000011108D
:101A400000001210000021100000221000003110D0
:101A50000000321000080140000C0140001001405D
:101A60000014014000180140001C0140014840687A
:101A7000704700BF0000002038B50D4D0D4A297891
:101A800004464FF47A70B0FBF1F11068B0FBF1F04E
:101A900000F0D5FE50B9102C08D2002221464FF09C
:101AA000FF3000F0A5FEAC60002032BD012032BD49
:101AB000000000200C00002080B50748016841F0BC
:101AC00010010160032000F086FE0020FFF7D4FF24
:101AD00000F0E6FE002002BD0020024078B52F484D
:101AE0002F4D304C85B0016841F01001016042F289
:101AF000C606026802F0100204920499016841F0DF
:101B000020010160026802F0200204920499016839
:101B100041F004010160026802F004020492002214
:101B20000499016841F0080101603146006800F045
:101B30000800049004982846FFF773FF00224FF432
:101B400032412046FFF76DFF0120022101900391F1
:101B5000009669462846FFF799FE4FF4447000F05E
:101B600025F82846FFF792FE44F2990000F01EF88F
:101B70002046FFF78BFE4FF43240009001210220F7
:101B80000191039069462046FFF780FE042000F093
:101B90000DF80548FFF77AFE06B070BD1810024038
:101BA00000100140000C0140001401400090002191
:101BB000012001910290694670470000064881B0FB
:101BC000016841F001010160006800F0010000902F
:101BD000009801B0704700BF14100240644838B547
:101BE000644C00F065F886B0472060600020A0607B
:101BF000312000F036F810B1422100F05CF800F01E
:101C000029F810B1482100F056F800F057F810B14B
:101C10004F2100F050F807B030BD574838B5574C49
:101C200000F046F886B0472000F069F800F019F897
:101C300010B1612100F03FF800F00CF810B16721FD
:101C400000F039F800F03AF810B16E2100F033F8E6
:101C500007B030BD4FF48050029002A9204600F03A
:101C600026BFE06000202061A061204600F05CBE3D
:101C7000434838B5434C00F01BF886B041F61F408E
:101C800060600020A060C720FFF7EBFF10B180214B
:101C900000F011F8FFF7DEFF10B1862100F00BF81D
:101CA00000F00CF810B18D2100F005F807B030BD40
:101CB00038A5206070472846FFF7E6BD0020009059
:101CC00001906946204600F0D9BF3EB52E4C2F4802
:101CD000FFF7EEFF40F2CF2000F011F8E0600020A7
:101CE000A061204600F020FE10B19D21FFF7E3FF28
:101CF000FFF7E4FF10B1A421FFF7DDFF37BD6060FF
:101D00000020A06040F2E730704781B00068184AB8
:101D10001F49904207D1086840F002000860096836
:101D200001F002011FE0144A904207D1086840F018
:101D300004000860096801F0040114E0104A9042B0
:101D400007D1086840F008000860096801F0080140
:101D500009E00E4A904208D1086840F0100008607F
:101D6000096801F010010091009801B0704700006F
:101D700000040040A00D002000080040E00D0020FD
:101D8000000C0040200E0020600E002000100040DB
:101D90001C100240453A5C55736572735C62657253
:101DA000747A5C446F63756D656E74735C476974B7
:101DB0004875625C42535076322E325C4253507604
:101DC000322E325C5372635C74696D2E63000000C6
:101DD00080B54F484F4900F011F818B1BDE80440F4
:101DE00046211BE001BD80B54B484C4900F006F888
:101DF00018B1BDE80440592110E001BD01604FF465
:101E0000E131416000218160C16001610C214161CB
:101E100000218161C16100F057BF000044A0FFF7BD
:101E200033BD00002DE9F841044685B02068394AE9
:101E30003FA53B4E3B4FDFF8F0803C49904226D116
:101E4000086840F4804008600222096801F480417B
:101E500004914FF4007100F051F84FF4806000F0ED
:101E600045F800207060B06037608020F06000208E
:101E700030617061B061F0613046FFF7BDF918B1B3
:101E800084212846FFF700FD666374622BE0234A35
:101E9000904228D1486840F40030486002224868E7
:101EA00000F400300490042100F028F8082000F02D
:101EB0001DF807F1140070640020B064F064802005
:101EC000306500207065B065F065306606F144004D
:101ED000FFF792F918B1AF212846FFF7D5FC06F1BC
:101EE00044006063B46606B0BDE8F0810021009054
:101EF0000191029140466946FFF7C8BC04980091E1
:101F000003200390019269464046FFF7BFBC0000E2
:101F1000A00E002000380140E00E002000440040E8
:101F2000280C002058000240000801401810024010
:101F3000453A5C55736572735C626572747A5C4491
:101F40006F63756D656E74735C4769744875625C28
:101F500042535076322E325C42535076322E325CEF
:101F60005372635C75736172742E630080B525488B
:101F7000254901604FF482714160002181604FF476
:101F80000061C1600021016141614FF40071816114
:101F90000821C16100210162416281620A21C1629E
:101FA00001F012F928B1BDE80440452119A0FFF75E
:101FB0006BBC01BD00681449884200D0704718B559
:101FC0001248134C85B0016841F480510160A02192
:101FD000006800F4805000900222009801910320D4
:101FE0000490029201A92046FFF750FC40200021F6
:101FF000019002910391204601A9FFF747FC06B02A
:1020000010BD0000B00C002000300140181002404C
:1020100000080140453A5C55736572735C626572F5
:10202000747A5C446F63756D656E74735C47697434
:102030004875625C42535076322E325C4253507681
:10204000322E325C5372635C7370692E6300000041
:102050003EB5374C374800BF3BA520604FF4807039
:10206000A0600020E06060614FF46020E06100202B
:10207000606002202061204600F084F818B14521FC
:102080002846FFF701FC0D20009001210720019157
:1020900002906946204600F0FCF918B14F2128460D
:1020A000FFF7F2FB102002210090019120466946C3
:1020B00000F0EFF918B158212846FFF7E5FB37BDCE
:1020C00030B5044685B020681A4988422DD11A4897
:1020D0001A4D016841F4007101600821006800F4A4
:1020E000007000900322009815480191029201A906
:1020F000FFF7CCFB00206860A8608020E8604FF408
:10210000007028614FF4006068612020A861002001
:102110000C49E86129602846FFF76EF818B17C2168
:1021200009A0FFF7B1FB25626C6205B030BD00006D
:10213000200F002000240140181002405C0D0020F8
:102140000010014008000240453A5C557365727307
:102150005C626572747A5C446F63756D656E7473EE
:102160005C4769744875625C42535076322E325C2B
:1021700042535076322E325C5372635C6164632E3C
:1021800063000000F8B5044600270026002C7AD032
:1021900004F12405686820B9AE6028702046FFF776
:1021A0008FFF204600F03EFA6968CA066CD4010031
:1021B0006AD1696821F4885141F00201696023689D
:1021C000DFF83814E269D4F804C08B4204BFB2F5DA
:1021D000402F4FF40022E16842EA0C02D4F808C014
:1021E000BCF5807F14BFBCF1010F4FF48077D4F8A9
:1021F00014C0BCF1010F42EA41020FD131B9A1690B
:10220000491E490341F400610F4307E0696841F04A
:1022100020016960A96841F00101A960596821F4B1
:1022200069410F435F602368DFF8D4139F680F4054
:1022300017439F60A168B1F5807F18BF012902D1C3
:102240002669761E36052168CB6A23F470031E4387
:10225000CE622468DFF8AC13A3680B40934208D128
:102260000021A960696821F0020141F00101696063
:10227000F2BD686820F0020040F010006860A868B5
:1022800040F00100A86003E0686840F0100068605A
:102290000120F2BD044604F1240528780128704786
:1022A00001212970204672E12DE9FC470446894648
:1022B0002068DFF86413DFF85883DFF8587388422A
:1022C00018BF4045924603D1386810F4702F64D18E
:1022D000FFF7E1FF08BF022061D0FFF7E1FF002810
:1022E000064657D16968DFF82403014041F4807144
:1022F00069602068404518D1396811F4702F14D0F6
:10230000686840F4801068603968480505D56868D9
:1023100020F4005040F4805068606868C10446BFF3
:10232000A86820F00600002006E0696821F480110A
:10233000696040684105E9E7A860534600202870BD
:10234000216A0FF225308862216A0FF26530C86277
:10235000216A0FF2653008636FF002002268106096
:102360004A462068816841F480718160206800F1EC
:102370004C01206AFEF783FF2068816801F4602128
:10238000B1F5602F81680CBF41F4A00141F48011C8
:10239000816003E00020287000E001263046BDE89F
:1023A000F68710B5044621684868820622D50A6877
:1023B00090071FD5A06AC20603D4A06A40F400703B
:1023C000A06200F05AF804BFE06800280BD14A6808
:1023D00022F020024A60A06A20F48070A062A06A05
:1023E000C10400F050F8204600F02FFF21686FF084
:1023F000120008602168486802062BD50A68500759
:1024000028D5A06AC20603D4A06A40F40050A06296
:10241000886800F4E040B0F5E04F08D04868420515
:1024200011D400F02AF804BFE06800280BD14A68F4
:1024300022F080024A60A06A20F48050A062A06A64
:10244000C10500F020F8204600F000FF21686FF081
:102450000C000860206841684A060DD50068C10775
:102460000AD5A06A40F48030A062204600F0EFFE5A
:1024700021686FF00100086010BD886800F46020DA
:10248000B0F5602F704703D4A06A40F00100A0624D
:102490007047F8B50A46002100F1240300911C782A
:1024A000012C01D10220F2BD01251D701F275468A7
:1024B00015680668072C08D2641E04EB8404D6F85D
:1024C00034C000F05EF8756312E00D2C08D2E41FF2
:1024D00004EB8404D6F830C000F053F8356307E00D
:1024E0000D3C04EB8404D6F82CC000F04AF8F562E9
:1024F00007271668946805680A2E08D30A3E06EB7B
:102500004606D5F80CC000F036F8EC6006E006EBA5
:102510004606D5F810C000F02EF82C611468102C77
:1025200018BF112C23D100683B4CA0421AD13B4864
:10253000046825021BD4056845F400050560106891
:10254000102814D1304C36482568B5FBF0F00A222B
:1025500050430090009800281EBF009A521E00921F
:10256000F8D104E00121586840F0200058600020B4
:1025700018700846F2BDB7402CEA0707B4403C4348
:102580007047A7402CEA0707A5403D43704738B580
:1025900004460020009020688168CA072AD4816818
:1025A0001F4A41F00101816017480168B1FBF2F256
:1025B000009202E00098401E009000980028F9D197
:1025C000FFF754FA054621688868C10712D4FFF75F
:1025D0004DFA401B0328F6D304F124000022416881
:1025E00041F010014160816841F001018160027099
:1025F000012032BD002032BD00000000003C01403F
:10260000FDF7E1FFFE0E1FFF0C000020FEF1FFFFB3
:102610000028014004240140002401400824014016
:1026200040420F0038B5044620688168CA0719D5B2
:102630008168490849008160FFF718FA054620685B
:102640008168C8070ED5FFF711FA401B0328F6D39F
:10265000A06A40F01000A062E06A40F00100E06271
:10266000012032BD002032BD416A8A6A12F0500F4B
:102670001BD1886A40F4007088620A68906800F490
:102680006020B0F5602F04BFC86800280AD18A6AAC
:1026900022F480728A62886AC20403D4886A40F095
:1026A00001008862084600F0D0BD096A0A6B104735
:1026B000406A00F0CDBD0000406A816A41F04001EF
:1026C0008162C16A41F00401C16200F0C2BD000034
:1026D0002DE9FC410646354D3078C10750D5A86933
:1026E0000024C10009D4A86940F08050A8610124E9
:1026F000A86900F08050009000982D4F3968C805F7
:1027000017D4386840F480703860FFF7AFF980461E
:102710003968C8050DD4FFF7A9F9A0EB08006528B2
:10272000F6D303203FE0FFF7A1F9C01B404519D3C2
:10273000F7E7E86910F440701EBF716801F440715A
:10274000884212D01B49E86901220A6020F44070D7
:1027500000220A60E861C00707D5FFF787F907463E
:1027600041F28938E8698107DDD5E969706821F4AB
:1027700040710143E9611CB1A86920F08050A86153
:102780003178880705D52A68B06822F440420243B0
:102790002A603078C10605D52968706921F4800166
:1027A000014329600020BDE8F681000004100240CA
:1027B00000700040400442420901020081B006D589
:1027C0002F4A00F00F00104400F8041C01E02D4BCC
:1027D000195401B070472C4A13684FF6FF010002EC
:1027E0000B4000F4E060184328490843106070472C
:1027F00038B5254B1C68C4F30223C3F10704052C2C
:1028000028BF04241D1D072D34BF0023DB1E012516
:1028100005FA04F4641E2140994005FA03F35B1E97
:102820001A401143BDE83440C6E7012200F01F0101
:10283000174BFFE78A40400943F82020704710B546
:10284000401EB0F1807F01D3012010BD114C6060AB
:102850000F214FF0FF30FFF7AFFF0022A2600720EB
:102860002060002010BD04280A4904D1086840F007
:102870000400086070470A6822F004020A6070478A
:1028800018ED00E000E400E00CED00E00000FA05C7
:1028900000E100E010E000E000F000B87047000048
:1028A00080B51F48016841F001010160006800F037
:1028B0000100009000980320FFF78DFF0022002107
:1028C0006FF00B00FFF794FF002200216FF00A0069
:1028D000FFF78EFF002200216FF00900FFF788FF4D
:1028E000002200216FF00400FFF782FF0022002188
:1028F0006FF00300FFF77CFF002200216FF0010062
:10290000FFF776FF002200214FF0FF30FFF770FF46
:102910000448016821F0E06141F00071016001BDEF
:10292000181002400400014038B5040001D1012014
:1029300032BD00F014F818B900F00DF8FFF7E5F912
:10294000FFE702206870211D206800F01BF90120BC
:102950006870002032BD002129702046704704F1C4
:102960003C056878704710B50446206801698A07FD
:1029700015D5C1688A0712D56FF0020202610121E4
:102980002177806910F0030F204602D000F062FC2E
:1029900003E000F060FC00F087F80020207720685A
:1029A00001694A0715D5C1684A0712D56FF00402BC
:1029B000026102212177806910F4407F204602D015
:1029C00000F048FC03E000F046FC00F06DF8002049
:1029D0002077206801690A0715D5C1680A0712D552
:1029E0006FF00802026104212177C06910F0030F23
:1029F000204602D000F02EFC03E000F02CFC00F09A
:102A000053F80020207720680169CA0615D5C168EF
:102A1000CA0612D56FF01002026108212177C06941
:102A200010F4407F204602D000F014FC03E000F0D8
:102A300012FC00F039F80020207720680169CA07ED
:102A400008D5C168CA0705D56FF0010202612046AA
:102A5000FEF7B0FE206801690A0608D5C1680A06BB
:102A600005D56FF080020261204600F0F5FB20687A
:102A700001694A0608D5C1684A0605D56FF04002CB
:102A80000261204600F0E9FB206801698A060AD548
:102A9000C1688A0607D56FF0200202612046BDE8B2
:102AA000104000F0DBBB10BD204600F0D8BB38B5AD
:102AB00000F05DF801D1022032BD01222270022017
:102AC00060702A68DFF830019368034093600868FB
:102AD000002837D0102837D0202837D0302837D0DA
:102AE00040282BD050281ED0602820D070280BD032
:102AF000B0F5805F03D0B0F5005F0CD02CE0286803
:102B00008168C908C9000CE000F028F828688168CD
:102B100041F0770105E000F021F82868816841F470
:102B20008041816018E000F01EF8502111E0CA6871
:102B30004968286800F07BF860210AE000F013F88B
:102B4000402106E0002104E0102102E0202100E005
:102B50003021286800F07DF80FE00000CB684A685B
:102B6000896828687DE0CA684968286850E0054699
:102B700005F13C0420780128704701206070002096
:102B8000207032BDF0B5DFF874C01D4F03681D4CD6
:102B90001D4D1E4E604518BFB84208D0B0F1804FA1
:102BA00018BFB04203D0A84218BFA0420DD14A6856
:102BB00023F070031343604518BFB84207D0B0F14B
:102BC000804F1CBFB042A84201D0A04203D1CA68C6
:102BD00023F4407313434A6923F0800313430360D3
:102BE00060458A68C2620A68826212BFB842096997
:102BF000016301214161F0BD8800FFFF002C01400D
:102C000000340140000C0040000800400004004077
:102C100010B5036A046A64086400046223F00A03BE
:102C2000846924F0F00444EA0214846123E010B5BE
:102C3000036A23F0100303628369046A23F4704378
:102C400043EA023324F0A004836144EA01140462DD
:102C500010BD826822F07002114341F007018160CB
:102C6000704710B5846824F47F442143114341EA3E
:102C70000321816010BD1943016210BD30B500F120
:102C80003C031A78012A01D1022030BD01241C70B6
:102C900002225A700268546824F070045460046878
:102CA00065680A68154365600268946824F08004CA
:102CB00094600268946848680443946001205870E6
:102CC0000020187030BD000038B5040001D101208B
:102CD00032BD00F022F808B900F023F800F013F834
:102CE00000F024F8FFE7416100F001F832BD2068F0
:102CF000C16841F40051C160002068602020687004
:102D0000A87000207047242068702068C16821F4F2
:102D10000051C160204600F0E2B904F1380568783E
:102D20007047002129702046FFF77CB820680169B0
:102D300021F4904101612068416921F02A01704726
:102D400038B5044604F138051346A87820283ED14A
:102D500009B1180001D1012032BD2878012836D0F0
:102D600001222A70A162A385002068602220A87039
:102D7000626B0FF211209062626B0FF24120D06201
:102D8000626B0FF2412010630020626B50630A46B1
:102D90002068011D606BFEF772FA00200090206829
:102DA0000168009142680092002200992A70C2686E
:102DB00042F48072C2602068416941F001014161C2
:102DC0002068416941F040014161002032BD02208C
:102DD00032BD38B5044604F13905206841692A78C6
:102DE000212A09D1090607D500F017F808B1FEF726
:102DF00080FA204600F00BF9206841696A78222A9F
:102E000009D1490607D500F00EF808B1FEF771FAAE
:102E1000204600F005F9002032BD416921F0800113
:102E20004161206B7047416921F040014161606B55
:102E3000704738B5044625682968EA686B6911F05F
:102E40000F0007D188065DD590065BD52046BDE80A
:102E50003240F9E0D80702D412F4907F52D0C8076C
:102E600005D5D00503D5E06B40F00100E0634807CD
:102E700005D5D80703D5E06B40F00200E063880772
:102E800005D5D80703D5E06B40F00400E0630807E0
:102E900005D5D80703D5E06B40F00800E063E06B90
:102EA00000286ED0890604D5900644BF204600F065
:102EB000CBF820684069E16B0A0701D440061BD5B6
:102EC000204600F0ADF8206841694A060FD5FFF7AB
:102ED000AAFF60B10FF265114163606BFEF722FA41
:102EE00000284ED0606B416BBDE834400847204657
:102EF000BDE8324000F0B4B9204600F0B1F900203E
:102F0000E06331BD08062CD510062AD594F83900A7
:102F1000212836D1A168206AB1F5805F0DD10188E2
:102F2000C1F308016960206918B9216A881C206210
:102F300007E0206A411C216203E0411C2162007805
:102F40006860E08C401EE08480B2D0B92068C1681F
:102F500021F08001C1602068C16841F04001C1607A
:102F600031BD48060DD550060BD5E86820F040006D
:102F7000E860202184F839102046BDE8324000F096
:102F800070B931BD416A00680268930613D400200D
:102F9000C8850868C26822F48072C2600868426905
:102FA0005208520042610868426922F040024261C0
:102FB000202081F83A00084600F054B9406A00F039
:102FC00052B9000038B5446A2068406904F13905F7
:102FD0002978212906D1000604D50020E084204666
:102FE00000F015F8206840696978222906D140066A
:102FF00004D50020E085204600F012F8E06B40F098
:103000001000E0632046BDE8324000F029B90168B5
:10301000CA6822F0C002CA60202180F839107047C7
:103020000168CA6822F49072CA6001684A6952084D
:1030300052004A61202180F83A107047406A00210E
:10304000C185C18400F00CB980B590F83A102229EE
:1030500043D18268B2F5805F14D1826A016941B9B7
:1030600003685968C1F308011180826A911C81626A
:1030700018E001684B6803F0FF031380816A4A1C63
:1030800082620FE001690029816A04D14A1C8262D0
:103090000268536805E04A1C82620268536803F0C4
:1030A0007F030B70C18D491EC18589B299B9016832
:1030B000CA6822F02002CA600168CA6822F48072DD
:1030C000CA6001684A69520852004A61202180F8AA
:1030D0003A1000F0C7F8002002BD022002BD2DE921
:1030E000F0470446642521680A69E06822F44052EA
:1030F00002430A611926CA6831480240A0680243A7
:103100002069024360690243CA604A69A06922F4E7
:10311000407202432B484A6181420ED1FEF739F8D2
:103120000746FEF736F88046FEF733F88146FEF78D
:1031300030F88246FEF72DF80DE0FEF722F807463C
:10314000FEF71FF88046FEF71CF88146FEF719F8D7
:103150008246FEF716F806FB09F961688900774395
:10316000B7FBF1F206FB08F7B7FBF1F3B9FBF1F798
:10317000B7FBF5F705FB17331B013233B3FBF5F350
:10318000B2FBF5F203F0F00303EB021306FB0AF7C0
:103190004643B7FBF1F2B6FBF1F06421B0FBF1F06E
:1031A00005FB10252D0132356420B5FBF0F02168B8
:1031B00000F00F00C3188B60BDE8F087000000002E
:1031C000F3E9FFFF0038014010B5040001D10120F0
:1031D00010BD0020A06294F8510010B92046FEF7FF
:1031E000E9FE022184F851102068016821F04001B5
:1031F00001606268A068A1690243E0680243206937
:1032000002436069024301F40071E0690A4302432A
:10321000206A0243A06A024320680260A169606AD2
:10322000090C01F004010143206841602068E16A53
:1032300001612068C16921F40061C16100206065FD
:10324000012084F85100002010BD7047704770477E
:1032500070477047704770477047704770477047B6
:1032600070477047704770477047FEE7FEE7FEE71C
:10327000FEE770477047704780B500F049F8BDE839
:103280000140FFF709BB1748FEF7BAB81648FEF72A
:10329000B7B81648FEF7B4B81548FFF782B8154816
:1032A000FFF761BB1448FFF75EBB1448FCF7C8BFCB
:1032B0001248FDF7DEB810B5114C204600F030F88A
:1032C00004E010B50F4C204600F03AF82046BDE867
:1032D0001040FFF7AEBD0C48FFF745BB0B48FFF7AA
:1032E00042BB00005C0D0020280C00206C0C00206C
:1032F000200F0020A00D0020E00D0020080D002070
:10330000A00E0020E00E0020200E0020600E002005
:1033100002494A68087882184A6070470000002015
:103320001CB500680168CA0609D500200090194C38
:1033300000F016F8606B01684868174919E013BD82
:103340001CB500680168CA0609D500200090134C1E
:1033500000F006F8606B01684868114909E013BD88
:103360002068016800914068009020460099FFF7AE
:1033700030BDC0F50070488002B0087840F0010010
:1033800001F8040B4FF400722046BDE81040FFF72F
:10339000D7BC0000A00E002020080020E00E002076
:1033A000240A00200E49086840F0010008604A68BD
:1033B0000C4802404A600B680B4803400B600868E9
:1033C00020F4802008604FF41F004A6822F4FE02B7
:1033D0004A6088604FF00060044908607047000050
:1033E000001002400000FFF8FFFFF6FE08ED00E0CD
:1033F00000000000000000000102030406070809A5
:1034000019E050F8042BD30744BFA9F101039A181F
:10341000091F0023042942F8043BF9D25FEA817CAA
:10342000134604D54FF0000CA2F800C09B1CC9073E
:1034300044BF0021197050F8041B0029E1D17047E6
:1034400010B450F8041B79B1026843680244083094
:10345000DC0744BFA9F10104E31852F8044B43F818
:10346000044B091FF9D1ECE710BC704710B50749B0
:1034700079441831064C7C44163404E00A68081D6F
:10348000114488470146A142F8D110BD0800000050
:10349000280000006DFFFFFF480F00001000002013
:1034A000000000009DFFFFFF10000000640000000E
:1034B000000000200000000000F00DF8002801D0FE
:1034C000FFF7D4FFAFF300800020AFF30080FEF7DA
:1034D000A7F800F002F80120704700F001B80000E2
:1034E0000746384600F002F8FBE7000080B5AFF36E
:1034F0000080024A11001820ABBEFBE72600020044
:103500000148804701480047A533000821350008DD
:1035100001000000000000001000000000A24A04AA
:10352000AFF30080AFF30080FFF7C6FF000000009C
:1035300001020304FFF7FEBFFFF7FEBFFFF7FEBF68
:10354000FFF7FEBFFFF7FEBFFFF7FEBFFFF7FEBFAF
:10355000FFF7FEBFFFF7FEBFFFF7FEBFFFF7FEBF9F
:10356000FFF7FEBFFFF7FEBFFFF7FEBFFFF7FEBF8F
:10357000FFF7FEBFFFF7FEBFFFF7FEBFFFF7FEBF7F
:10358000FFF7FEBFFFF7FEBFFFF7FEBFFFF7FEBF6F
:10359000FFF7FEBFFFF7FEBFFFF7FEBFFFF7FEBF5F
:1035A000FFF7FEBFFFF7FEBFFFF7FEBFFFF7FEBF4F
:1035B000FFF7FEBFFFF7FEBFFFF7FEBFFFF7FEBF3F
:1035C000FFF7FEBFFFF7FEBFFFF7FEBFFFF7FEBF2F
:1035D000FFF7FEBFFFF7FEBFFFF7FEBFFFF7FEBF1F
:1035E000FFF7FEBFFFF7FEBFFFF7FEBFFFF7FEBF0F
:0435F000FFF7FEBF24
:040000050800352199
:00000001FF
