:020000040800F2
:10000000580E00200D450008F9420008FB42000888
:10001000FD420008FF420008014300080000000004
:100020000000000000000000000000000343000882
:1000300005430008000000000743000809430008CA
:100040004145000845450008494500084D45000860
:100050005145000855450008594500085D45000810
:100060006145000865450008694500081743000818
:100070006D45000871450008754500081D430008DE
:100080002343000879450008294300087D450008FE
:100090008145000885450008894500088D45000810
:1000A0009145000895450008994500089D450008C0
:1000B000A14500082F43000835430008A545000866
:1000C000A94500083B43000841430008AD4500082E
:1000D000B14500084743000853430008B5450008F0
:1000E000B9450008BD450008C1450008C5450008E0
:1000F000C9450008CD450008D1450008D545000890
:10010000D9450008DD45000867430008E1450008BF
:10011000E5450008E94500086D430008ED45000885
:10012000F1450008F5450008F9450008FD450008BF
:10013000F8B5040016D004F13C05687820B9002118
:100140002970204600F08EFF00F066F801F00FFAEB
:1001500001466068DFF8E821904205D2DFF8E4014B
:10016000814205D20120F2BDDFF8DC018142F9D3E2
:10017000DFF8D801B1FBF0F320684360666896426F
:1001800006D34FF4967043434FF47A76B3FBF6F3FD
:1001900027685B1C3B62491E6368934206D25B0082
:1001A00000F034F8042813D2042011E0A06820B92C
:1001B00003EB430300F02AF805E01920434300F065
:1001C00025F840F4804001050CBF012040F40040B8
:1001D0002168C861E269206A0243206802602169DF
:1001E000E0680143206881606169A069014320687B
:1001F000C1602068016841F0010101600020686071
:100200002020687000202063A870F2BDB1FBF3F0DD
:10021000401CC0F30B007047242068702068016800
:1002200049084900016070472DE9FC4700F0B2F829
:1002300000F080F843D100F0A3F800283FD13878CF
:1002400001283CD000F05CF8212000F047F800F0D5
:100250007FFD40B17868042802D1002139702AE07E
:100260000020387029E000F05DF8308D002829D09A
:1002700000F073F8C8B900F075F800F07DF8308D23
:10028000401E308531684A69530706D580B220B1D7
:10029000706A421C726200F018F800F059F80028E9
:1002A000E3D07868042808D102E07868042804D1F3
:1002B000306800F080F8012002E0032000E0022016
:1002C000BDE8F68700F06CF8FAE700780861708DF9
:1002D000411E7185308D411E3185704778702A46E8
:1002E0001020B870414600207860C6F82490A6F827
:1002F0002AA0DFF89C00F062708D30853046704790
:100300000121397030680168CA0703D4026842F0DD
:1003100001020260234630680A9D016821F40061F1
:1003200001607047009030684169009180690090D9
:100330000099704706F13C070446787820287047FA
:10034000A186010080841E0000093D0040420F008C
:1003500022462946304600F026BE2246294630462F
:1003600000F007BE706A411C716231680078086154
:100370007047308D411E3185708D411E71857047EB
:10038000009419230122DFF84414304600F07ABDAE
:100390000000FFFF0646884691469A4601F01AB9CA
:1003A0003068016841F400710160202078700020FD
:1003B000B87038707047016841F40071016070478F
:1003C000DFF80408E06270472DE9F84F044604F1B5
:1003D0003D022168DFF81C8AD1F818904E694F68F9
:1003E0005078DFF88055DFF810AADFF810BADFF890
:1003F00030CA102818BF40286ED116F0011F04F132
:1004000044032ED0B8053ED55078402809D1D8688D
:1004100018B91A6802F0FE0221E0186840F00100E5
:1004200026E02069B0F5804F0BD11278212A03D144
:10043000186800F0FE001CE01A6842F00102D2B217
:100440000DE0D86820B900F0C6F842F0F00206E0EE
:10045000D868012817D100F0BEF842F0F1020A6115
:1004600011E0DFF8C009064205D0BA050BD51868BF
:10047000C0B2086107E016EA0C0F04D0B80544BF0B
:10048000204600F081FA19EA0B0F12D016EA0A0F83
:1004900007D0780505D52E4203D12046BDE8F24F9E
:1004A0000BE12E4245D0B8055CD52046BDE8F24FA1
:1004B00067E116EA080F07D0780505D52E4203D16B
:1004C0002046BDE8F24FAAE12E4232D0B80549D508
:1004D0002046BDE8F24FFCE116EA0C0F12D0B80539
:1004E0001AD58A6989690020530758BF01200A0676
:1004F0000146204654BFE268A269BDE8F84F92B2B7
:1005000001F06EB8DFF82009064205D0BB0503D51F
:100510002046BDE8F24FEBE219EA0B0F2CD016EAA9
:100520000A0F1CD078051AD52E4218D11378608D89
:1005300000284ED0606A451C65620078086100F0B2
:1005400050F808BF292B44D100F051F82120206336
:10055000282010702046BDE8F24F01F042B82E422C
:1005600037D0B80535D5608D002832D0606A421C7E
:1005700062620078086129E016EA080F1BD078054E
:1005800019D52E4217D11378608D10B3606A451CBF
:1005900065620969017000F024F808BF2A2B18D1A0
:1005A00000F025F822202063282010702046BDE8A6
:1005B000F24F01F017B82E420BD0B80509D5608D67
:1005C00038B1606A421C626209690170608D411E27
:1005D0006185BDE8F18F1A681204D20D02F006029F
:1005E0007047608D411E6185608D002870472068CE
:1005F000416821F4806141607047F8B50446DFF836
:100600002C182068456946680D420DD0F20518D5B2
:10061000216C41F0010121646FF480724261206815
:10062000016841F40041016015F4813F09D0F005F3
:100630003CD5206C40F0020020646FF4007120680B
:10064000416115F4823F24D0F0052FD504F13D001F
:100650004778618D0278236B202F08BF00290BD1CA
:10066000212A18BF292A03D0282A08BF212B03D109
:10067000204600F0ABFA0CE0216C41F0040121644B
:100680004078102801D100F0BFFB6FF48060226831
:10069000506115F4843F09D0F00507D5206C40F077
:1006A000080020646FF4006122685161206C18B169
:1006B0002046BDE8F240C5E2F1BD38B500F13D028B
:1006C00013785478C56A018D002908BF212B16D1F3
:1006D000042D1EBF082DDFF858178D4202D000F000
:1006E00081F809E000F08AF804D10023537000F08B
:1006F0007AFF44E00021517000F076FF3FE0212BAB
:1007000003D0402C08BF222B39D1418D11B900F004
:10071000D4F834E0517840292FD100F1480399688A
:1007200089B900685968012905D11A68D2B20261F5
:100730009868801C05E019680904090E0161986831
:10074000401C98601BE09968012907D11A6800686D
:10075000D2B202619968491C996010E09968022937
:100760000DD11378222B05D10068016841F4807106
:10077000016004E01278212A01D100F029F800205C
:1007800032BD10B5C36A00F13D021478212C1AD194
:10079000418D11B100F01CF815E0042B1EBF082B91
:1007A000DFF88C168B4202D000F01CF809E000F054
:1007B00025F804D10023537000F015FF03E0002159
:1007C000517000F011FF002010BD00000200100069
:1007D000416A4A1C4262026809781161418D4A1ED1
:1007E0004285704701684B6823F4E0634B60112138
:1007F00001630021517020211170704701684B681E
:1008000023F4E0634B6001680B6843F400730B60F2
:10081000002101632021117051784029704710B5E3
:1008200000F13D010A78222A45D1428D042A02D3E3
:1008300000F09AF83FE0022A18BF032A13D101689A
:10084000C26A0B68022A08D023F480630B60016837
:100850000A6842F400620A6002E043F480630B60BD
:1008600000F02BF827E00268C36A022B04D014685A
:1008700024F48064146003E0136843F4806313601D
:1008800000F021F8426A531C436203681C6914702B
:10089000428D531E4385002220230B7002634A7849
:1008A000402A04D100234B7000F09FFE03E0002299
:1008B0004A7000F09BFE002010BD0068416821F4E2
:1008C0008061416070470268536823F4E0635360BD
:1008D000704780B5C16A438DDFF85425032B07D1DB
:1008E00004291CBF0829914237D100F0F2F834E006
:1008F000438D022B31D104291CBF082991420ED00F
:100900000268022904D0116821F48061116003E0BB
:10091000136843F48063136000F030F806E000F0E1
:100920002DF801680A6842F400720A6000F01CF8B1
:1009300000F01AF800F13D0120220A700022026343
:100940004A78402A04D100234B7000F04EFE06E0A6
:1009500000224A7000F04AFE01E000F005F8002095
:1009600002BD000004000100416A4A1C42620268A4
:1009700013690B70418D4A1E4285704701684A68B1
:1009800022F440724A60704738B500F13D014A7860
:10099000C36A046B0D78222D40F08580016D00291B
:1009A00008BF402A02D1002200927EE0016D00299A
:1009B00004BF0269B2F5404F07D100F081F842F45C
:1009C00080720A60016D491C6BE0418D11B90022F3
:1009D00000922BE0418D012933D1DFF8542493425A
:1009E0000DD100F076F801684A68130510D4002292
:1009F00000924B6900938A690092009B1CE0042BD3
:100A00001CBF082B122C0DD00168C26A022A04D028
:100A10000B6823F480630B6040E00A6842F4806254
:100A20000A603BE000F055F80021009101684A6936
:100A300000928B690093009A0A6842F400720A607F
:100A40002EE00168428D022A1CD1C36A022B0AD013
:100A50000A6842F400620A60002100F031F822F4D2
:100A600080620A6005E00B6843F480630B6000F06D
:100A700036F801684A68130512D54A6842F4805274
:100A80004A600DE00B6843F480630B6001684A68BC
:100A9000130503D54A6842F480524A6000F01FF8FB
:100AA0000021016504E000210091006800F002F8D7
:100AB000002032BD41690091806900900099704723
:100AC000009101684A6900928B690093009A0A6854
:100AD000704701680A6822F480620A60704700214A
:100AE000009101684A69009289690091009A7047F3
:100AF0007CB500F13D02137801684C6824F4E06491
:100B00004C600021009101684C6900940D6845F02B
:100B100001050D60009901680C6824F480640C6084
:100B2000046861680D050DD51578222D1CBF11785C
:100B30002A2903D1856B29684E6802E0416B0D6854
:100B40006E684685418DD1B16569690707D5416AEF
:100B50004D1C456224690C70418D4C1E4485016812
:100B60004C69650607D5446A651C456209692170B0
:100B7000418D4C1E4485016C41F004010164016CFF
:100B800011B100F05FF81CE0282B1CBF2A2B292B89
:100B90000BD1DFF89C12C16200210163202111708A
:100BA0000021517000F023FD0BE0016B222918BFDA
:100BB000222B06D10023036320211170537000F013
:100BC00011FD002076BD00000000FFFF38B500F1E8
:100BD0003D016FF480620B78C46ADFF85452042C34
:100BE00014BF082C282B15D1C56203685C6824F457
:100BF000E0645C6003685A610268146824F48064ED
:100C000014600022026320220A7000224A7000F061
:100C1000EEFC15E0212B11D1C562036320230B707C
:100C200000234B7001684B6823F4E0634B6001685C
:100C30004A61FFF74EFF00F0D4FC01E0006842611A
:100C4000002032BD38B5044604F13D052878292836
:100C500018BF2A2804D100202063282028700BE028
:100C60002878602805D02168486801055CBF2021EC
:100C7000297000202063687000F05CF820684168EB
:100C80000A0523D5416821F400614160606B0FF2D1
:100C9000A51190F82120012A09D04163606B00F072
:100CA0003DFD002829D000F04BF8606B0BE0A06BF5
:100CB0004163A06B00F032FDF8B1206800F031F81C
:100CC00000F03EF8A06B416B884716E02978602958
:100CD0000ED120222A700022226400F022F820681F
:100CE0000168490849000160204600F092FE04E0D6
:100CF00000F017F8204600F08DFE287828280FD144
:100D0000216C48070CD5FFF75BFB002020632020F7
:100D10002870002068702046BDE8324000F067BCB3
:100D200031BD41694A0604D5616A4A1C62620069A4
:100D3000087070472068016821F400610160704705
:100D40002068016849084900016020202870704728
:100D5000F8B504460D46E06A04281EBF0128344950
:100D6000884216461F4602D100F030F804E0206B9E
:100D7000122801D100F037F80097334600F02EF822
:100D800010BB2069B0F5804F04D1216805F0FE0545
:100D90000D610EE0E809216800F0060040F0F00067
:100DA00008613B4632461F4900F037F838B900F079
:100DB00027F83B4632461A4900F02FF828B1206C3C
:100DC000042801D10120F2BD0320F2BD2068016892
:100DD00041F48071016070470096534600224FF045
:100DE000011120464EE02068036843F480730360DD
:100DF0007047000040000100800001000400100066
:100E00002068EDB2056170472068016841F4007107
:100E10000160704733464A464146204668E000007C
:100E200002000100080001001000010000010100A3
:100E30000000FFFF406A01680A6822F480620A60CD
:100E400000214185426B5163826B516300F13D018A
:100E50000B78602B0BD120220A7000224A700264AA
:100E600001680A68520852000A6000F0D2BD2023CF
:100E70000B7000224A7001680A68520852000A602A
:100E800000F0C8BD2DE9F8430F46089C3D02064618
:100E9000904699462D0E3068012D1ED1406938408C
:100EA00080B2B9B288421ED0002040451DD119F150
:100EB000010FF0D0B9F1000F04D000F08BFB001B44
:100EC0008145E8D200203063202106F13C004170CA
:100ED000002181700170032008E08069384080B2F1
:100EE000B9B28842E0D10120DFE70020BDE8F283FB
:100EF0002DE9FC410F463E02054614469846360E43
:100F00002868012E18D14169394089B2BAB291429C
:100F100018D041694A0517D5026842F40072026090
:100F20006FF480602968486105F13C00042242604A
:100F3000002100F05FF81AE08169394089B2BAB245
:100F40009142E6D1002012E014F1010FD8D02CB16B
:100F500000F040FBA0EB08008442D1D200202863BF
:100F6000202105F13C004170002101700320BDE803
:100F7000F68170B505460C46164628684169080694
:100F80000FD4284600F03DF808B1012070BD14F1DF
:100F9000010FF2D024B100F01DFB801B8442ECD283
:100FA0001BE0002070BD70B505460C46164628684B
:100FB000416948070FD4284600F023F808B1012002
:100FC00070BD14F1010FF2D024B100F003FB801BBF
:100FD0008442ECD201E0002070BD05F13C0000220B
:100FE000416841F0200141602A6320214170027074
:100FF000032070BD29632021417000210170012070
:10100000704701684A6953050DD56FF480634B61E1
:1010100000F13C0104224A60002202632020487053
:101020000A700120704700207047000080B51C48FE
:101030001C4901601C49416000218160C1604FF47E
:1010400080410161002141618161C1610162FFF75D
:101050006FF830B1BDE804405FF0420115A000F028
:10106000E6BF01BD00680F49884200D07047F8B55F
:101070004FF44061009112200321019003916946D1
:101080000A4800F0DDFF0A48016841F48001016070
:10109000006800F480000090009805B000BD0000DA
:1010A0009407002000580040A0860100000C014079
:1010B0001C100240453A5C55736572735C62657240
:1010C000747A5C446F63756D656E74735C476974A4
:1010D0004875625C42535076322E325C42535076F1
:1010E000322E325C5372635C6932632E63000000FF
:1010F0002DE9F8430646DFF89C543078C1074AD5FD
:10110000686800F00C00042807D0686800F00C0044
:1011100008280BD16868C10308D5296888033AD527
:101120007068002840F0C080012069E17068B0F567
:10113000803F0FD038B9296821F4803129602868B0
:1011400020F4802009E0B0F5A02F296807D141F4F0
:1011500080212960286840F48030286006E021F46E
:10116000803129602A6822F480222A60706868B180
:1011700000F030FA04462968880300F1958000F0F9
:1011800029FA001B6528F6D3032039E100F022FA82
:1011900004462868810340F1878000F01BFA001B99
:1011A0006528F6D3F0E700F015FA001B022840F29C
:1011B000AA80E9E7306970B10121396000F00AFACC
:1011C00004462868810700F1DC8000F003FA001B68
:1011D0000228F6D9D8E7386000F0FCF90446286800
:1011E000810765D500F0F6F9001B0228F7D9CBE797
:1011F000086000F0EFF90446686A810777D500F0CF
:10120000E9F9001B0228F7D9BEE708B9286A09E006
:101210000528286A06D140F004002862286A40F0B8
:10122000010005E0400840002862286A20F0040020
:10123000286241F28938F06868B100F0CBF9814644
:10124000286A810700F1AA8000F0C4F9A0EB090028
:101250004045F5D398E700F0BDF98146286A81073B
:1012600040F19C8000F0B6F9A0EB09004045F5D3B1
:101270008AE700F0AFF9001B022840F2A28083E762
:1012800000F0A8F9001B022840F2B5807CE700F0CE
:10129000B9F804462868810140F1B18000F09AF95C
:1012A000001B0228F6D96FE73078DFF8F472810767
:1012B0001BD5686810F00C0F09D0686800F00C00AE
:1012C00008287FF477AF6868C1033FF573AF2968DA
:1012D000880703D5306901287FF426AF2968706933
:1012E00021F0F80141EAC0012960317808071DD5D5
:1012F000B069DFF8B01200283FF47AAF01220A602B
:1013000000F068F90446686A81077FF54CAFDFF8A2
:1013100088120868C0084FF47A72B0FBF2F20092AB
:1013200000BF0098411E00280091F9D13078410794
:1013300039D5E8690024C10009D4E86940F080503B
:10134000E8610124E86900F0805000900098DFF81F
:101350005882D8F80010C8051BD4D8F8000040F413
:101360008070C8F8000000F035F98146D8F8001008
:10137000C8050ED400F02EF9A0EB09006528F5D3BE
:1013800002E72868716920F0F80040EAC10028608F
:10139000ABE7F06801287FF438AF3FE71CB1E8699C
:1013A00020F08050E861F06948B3696801F00C01F1
:1013B00008293FF4B9AE02287FF469AF00F022F8A3
:1013C0000446286881013FF554AF306AB0F5803F8C
:1013D00005D16968B06821F400310143696069682A
:1013E000306A21F474110143706A0143696001207D
:1013F00000F009F80446286881017FF541AF00201C
:10140000BDE8F2830020386600F0E4B82DE9F84327
:10141000664F05463868894600F00700484502D205
:1014200000F07AF86CD129785A4C880705D56168A4
:10143000A86821F0F001014361602878C10757D501
:101440006868012802D121688A0303E0022803D1D9
:1014500021688A0103D453E02268910750D561685E
:10146000890840EA8100606041F2893800F0B2F8F2
:101470000646686801280BD1606800F00C0004285B
:1014800036D000F0A7F8801B4045F5D303202DE0AF
:10149000022837D1606800F00C00082828D000F03E
:1014A00099F8801B4045F5D3F0E72878410705D52A
:1014B0006168E86821F4E061014361602878010710
:1014C00006D56068296920F4605040EAC100606078
:1014D00000F02CF862683649C2F30312895C2E4A88
:1014E000C8401060002000F0A5FE0020BDE8F28397
:1014F000386800F007008145D7D200F00DF8D4D04D
:101500000120F3E7606810F00C0FF1D000F062F8F2
:10151000801B4045F6D3B9E73968C90849EAC101DB
:101520003960386800F007004845704721491B487A
:101530000A6802F00C03082B00D0704710B500BFFA
:101540001FA4C2F38343D203E35C09D5096800BF3B
:101550001FA2C1F340415843515CB0FBF1F010BDF4
:1015600018461549484310BD0B48006870470A48A3
:10157000104A006813681149C3F3022206E00648C6
:101580000C4A006813680D49C3F3C222895CC84045
:1015900070470000001002400C00002000127A008A
:1015A000000042428004424200700040002002409D
:1015B000FC4300080410024000093D0038450008C3
:1015C00002030405060708090A0B0C0D0E0F101084
:1015D0000102000001484068704700BF0000002081
:1015E0007047704770477047704770477047704743
:1015F00030B508B9012030BD0268DFF8B0138A4267
:1016000000F1280306D2DFF8A81300F02DF8DFF868
:10161000A41305E0DFF8A01300F026F8DFF89C1310
:101620005961022180F82110146841686FF30D148C
:101630000C4381680C43C1680C4301690C43416948
:101640000C4381690C43C1690C431460002119608B
:1016500059609960D9601961012180F82110002139
:1016600080F82010002030BD8C181425B4FBF5F450
:10167000A4009C617047F8B50446002594F820004A
:10168000012801D10220F2BD94F821000126012891
:1016900084F8206024D1022684F8216004F12C060D
:1016A000F560206807687F087F000760204600F02B
:1016B0009FF92168306820B10A6842F00E020A6082
:1016C00008E0086820F0040008602068016841F024
:1016D0000A0101602068026842F00102026002E033
:1016E00084F8205002252846F2BD10B501680A682A
:1016F00022F00E020A6000F13C020B685B085B00FE
:101700000B60012451688C4011684C60012200215B
:1017100080F8212080F82010002010BDF8B590F846
:1017200021200024022A00F1340103D00420486063
:1017300001245FE00268DFF88862136823F00E037B
:1017400013604FF48077026815686D086D001560AE
:101750004FF480320368B3424FF4805519D9DFF853
:101760004C62B34208BF012210D0DFF85862B34286
:1017700008BF10220AD0DFF85062B34208BF3A46D1
:1017800004D0DFF84862B34208BF2A46DFF840328F
:1017900027E0DFF840C263451CD0DFF83CC2634558
:1017A0001AD0DFF838C2634518D0DFF83472BB4274
:1017B0000EBF2A46DFF82C52AB4210D0DFF8285279
:1017C000AB4208BF4FF4801209D0B34207D14FF0AB
:1017D000807204E0012202E0102200E03A46DFF8C5
:1017E0000C321A60012280F8212080F8204009681C
:1017F00001B188472046F2BD2DE9F84F00F12802DB
:1018000004275169734BD1F800E004686C492568DE
:101810009669DFF8BC81DFF8B491DFF8ACA1DFF89E
:10182000A4B1DFF888C1B7401EEA070F4AD06F079E
:1018300048D52568AD0603D4256825F00405256044
:101840004FF4802407688F424FF480454FF4806640
:1018500011D9674508BF04240AD05F4508BF40245A
:1018600006D0574508BF344602D04F4508BF2C4626
:10187000C8F8004020E09F4217D0574B9F4216D037
:10188000564B9F4215D0564B9F420EBF2C46554B90
:101890009F420FD0544B9F4208BF4FF4800409D0A1
:1018A0008F4207D14FF0806404E0042402E040241A
:1018B00000E034464D490C605168002974D0BDE801
:1018C000F44F08470227B7401EEA070F4FD0AF0773
:1018D0004DD52568AD0606D4256825F00A05256096
:1018E000012480F821404FF4003407688F424FF400
:1018F00000554FF4007611D9674508BF02240AD07D
:101900005F4508BF202406D0574508BF344602D0A3
:101910004F4508BF2C46C8F8004020E09F4217D032
:101920002D4B9F4216D02D4B9F4215D02C4B9F42E2
:101930000EBF2C462B4B9F420FD02B4B9F4208BF14
:101940004FF4001409D08F4207D14FF0007404E027
:10195000022402E0202400E0344624490C600021E7
:1019600080F820101168F9B1BDE8F44F084708214C
:1019700001FA06F61EEA060F16D0290714D52168CB
:1019800021F00E012160012391698B4051694B6068
:1019900001230021136180F8201080F82130916824
:1019A00011B1BDE8F44F0847BDE8F18F08040240CB
:1019B000F8FFFDBF00000240F8FBFDBF000402403D
:1019C000800002401C0402403004024044040240F3
:1019D00004040240080002401C00024030000240A3
:1019E00044000240580002406C00024004000240E3
:1019F00038B5046C0125A540C46B6560046863605C
:101A00004068102802D1A260E16031BDA160E260AF
:101A100031BD7047704700002DE9F84300F02AFC03
:101A200000F0B0F800F038FC00F0A6FC00F0D3FCA9
:101A300000F0AEFD00F0B7FDFFF7F8FA00F076FE1B
:101A400000F0E6FE00F0F2FC00F01FFD00F0A4FC48
:101A500000F0DBF800F076FF00F067FA01F08FF895
:101A600001F0D7F8DFF87805DFF87845DFF878552A
:101A70000FF2BC56DFF87485DFF8747501F015F9C4
:101A8000DFF8700501F011F94FF6FF7901F0B2FBB4
:101A900001F0B7FB01F052FC97F82000012825D196
:101AA000002187F82010B87F20B9012200F065F8E6
:101AB00000F05CF8B87F022806D100F05DF84FF422
:101AC0000051404600F093FBB87F032804D100F09A
:101AD00053F8012200F04BF8B87F052806D14FF4E7
:101AE0008051404600F083FB00F040F8387E01282A
:101AF00006D1002139764A460D21304601F0A0F882
:101B0000F87F012804BFB97F032908D10020F877A6
:101B100078767862B8760420B87700F0DAF9387F02
:101B2000012801BF00213977B87F022804D10321A1
:101B3000B977002028802080787F012809D10021F2
:101B40007977787E022804BF797600F0CCF900F02E
:101B5000EBFF00F060FF00F093FFF87E012804BF68
:101B6000B97F022992D10020F8768FE700224FF446
:101B70000051404600F035BB00224FF480514046F2
:101B800000F02FBB00B5002195B001200D910B9006
:101B9000022112914FF480300C90012213904FF4E7
:101BA000E0110F9214910BA8FFF7A2FA00B1FEE723
:101BB0000F2102200091019000214FF480600291DA
:101BC0000390049168460221FFF720FC00B1FEE774
:101BD000022005904FF40041079105A801F0FAFB9F
:101BE00000B1FEE7FFF7C0FC4FF47A71B0FBF1F0F3
:101BF00001F0A7FC042001F0B8FC002200214FF006
:101C0000FF3001F077FC15B000BD80B50022002147
:101C1000122001F06FFC122001F089FC002200214B
:101C2000252001F067FC252001F081FC0022002125
:101C30001D2001F05FFC1D2001F079FC0022002135
:101C40001E2001F057FC1E2001F071FC0022002133
:101C5000322001F04FFC322001F069FC002200210B
:101C6000362001F047FC362001F061FC0022002103
:101C70000B2001F03FFC0B2001F059FC0022002159
:101C80000F2001F037FC0F2001F051FC0022002151
:101C9000102001F02FFC102001F049FC002200214F
:101CA000212001F027FC212001F041FC002200212D
:101CB000222001F01FFC222001F039FC002200212B
:101CC000262001F017FCBDE80240262001F02FBCC1
:101CD0002DE9F843C24A00681168C74FDFF81C932A
:101CE000C74DC34CDFF8048381427CD108214046B4
:101CF00000F071FA207410214046C24E00F06BFAD9
:101D00003070217C002904BF607C00282BD1E07C4E
:101D1000217D401CE074C0B2814227D2012068704E
:101D2000A0740020E074E87801281FD1484600F034
:101D3000C7FFB54801F045FD00F057FE384600F0FA
:101D4000BFFF0020A077688001206077AF49087846
:101D500060B16A7E521C6A76687E032806DB002228
:101D60006A760A7002E0002068706082207C6074ED
:101D70003178002904BF707800282ED1F0783179AD
:101D8000401CF070C0B281422AD20120B070002005
:101D9000F07001202870E87838B900F026FE0121A3
:101DA0000020E970A870A1762177287A01280CD14B
:101DB00000F01BFE002129720120A0760320A077ED
:101DC00000208949874A08801080607E012807D159
:101DD0000421A1770220607602E000202870708044
:101DE0003078707073E03968814249D1287E401C98
:101DF0002876287E0A2803DB0121E1760020287658
:101E00001021834800F0E7F92070002804BF6178B2
:101E100000290ED1A078002859D1E0782179401C02
:101E2000E070C0B2814252D20120A0700020E07068
:101E30004DE0A17809B10122E27700216180607054
:101E40004FF48041404600F0C6F92072002804BFDC
:101E5000617A00290CD1A07A002838D1E07A217B60
:101E6000401CE072C0B2814231D20120A07204E075
:101E7000A07A012804BF0021A1720020E07226E0B0
:101E80005C490A6882421BD1012084F82000E8697D
:101E9000401CE861E869332803D301212176002042
:101EA000E861A07E012812D1616A491C6162606A02
:101EB0003D280CD30121617600206062A07606E007
:101EC000D9F80010814202D1BDE8F14346E0BDE8F7
:101ED000F183E0B500F021F800F019F80021E320CB
:101EE0008DF8041008E0E0B500F017F88DF8040054
:101EF00000F00DF80121E2208DF802108DF80500A8
:101F00004FF6FF720721684600F09AFE07BD8DF874
:101F100001105D208DF8060070475B208DF80000F1
:101F2000E32100208DF803007047364800214170FE
:101F300041801321017100212D48417441821321F8
:101F400001750021417041801921017100218160DA
:101F50000A21017300210177417770472448817F6E
:101F6000052900D0704730B500200022294983B2EE
:101F700051F823309A18401C83B2202BF7DB2649F6
:101F8000224C184B52090A800A88207890B9234DB8
:101F9000234C2888904234BF101A801A2080214890
:101FA00024880588A54203D21C88641C1C8001E09B
:101FB000002018801B880C48032B0BDA0488812C26
:101FC000A4BF0023038003885C1C0480164820F80B
:101FD000132001E0002202800020088030BD0000B4
:101FE0002C080020440A0020460A0020000C014072
:101FF000DC090020AC0800206C080020EC08002060
:10200000040A0020480A0020AC090020390A0020F8
:10201000001001404C060020400A00203C0A00202D
:10202000520A00203A0A0020180400207047FEE7F8
:102030000D0A2054696D656C6F67200D0A00000061
:102040002DE9F84F83460F46002080466A496B4AC7
:102050006B4B4FF00F094FF0010A3C680AFA08F683
:1020600006EA040EB64540F0AE807C683CB3012C15
:102070001AD0022C1DD0032C2ED0112C16D0122CCD
:102080001AD0604DAC421CBF5F4DAC4217D05F4DC3
:10209000AC421CBF5E4DAC4211D05E4DAC421CBF89
:1020A0005D4DAC420BD018E0F86816E0F868001DF2
:1020B00013E0F868083010E0F8680C300DE0B868FC
:1020C00008B9042009E0012819BF0820CBF81460E2
:1020D0000820CBF8106000E00020BEF5807F03D21E
:1020E000DC464FEA880404E0A8F108040BF1040C74
:1020F000A400DCF8005009FA04F6B54300FA04F431
:102100002C43CCF800407C68E4005CD51C6844F0AB
:1021100001041C604FEA980C1D6805F0010500954C
:10212000009C52F82C604FEA880404F00C0409FA71
:1021300004F526EA0505394EB34508BF002618D038
:10214000374EB34508BF012613D0364EB34508BFFE
:1021500002260ED0344EB34508BF032609D0334EB5
:10216000B34508BF042604D0314EB3450CBF052645
:10217000062606FA04F42C4342F82C406FEA0E06B9
:102180007C68E50304D50D684EEA05050D6002E0A4
:102190000C6834400C607C68A5034C684CBF4EEA68
:1021A000040434404C607C68E5028C684CBF4EEA05
:1021B000040434408C607C68A502CC684CBF4EEAB5
:1021C00004043440CC6008F10108B8F10F0F7FF629
:1021D00044AFBDE8F18F8068084018BF0120C0B24D
:1021E000704781B002B90904016101B07047C2684B
:1021F0005140C160704700000004014008000140E8
:1022000018100240000011100000121000002110F0
:1022100000002210000031100000321000080140C0
:10222000000C014000100140001401400018014062
:10223000001C014038B50D4D0D4A297804464FF475
:102240007A70B0FBF1F11068B0FBF1F001F079F9B0
:1022500050B9102C08D2002221464FF0FF3001F077
:1022600049F9AC60002032BD012032BD00000020E1
:102270000C00002080B50748016841F010010160A2
:10228000032001F02AF90020FFF7D4FF01F058FCE9
:10229000002002BD0020024078B52F482F4D304C61
:1022A00085B0016841F01001016042F2C606026883
:1022B00002F0100204920499016841F020010160CB
:1022C000026802F0200204920499016841F00401BE
:1022D0000160026802F0040204920022049901687D
:1022E00041F0080101603146006800F008000490E8
:1022F00004982846FFF775FF00224FF4324120462C
:10230000FFF76FFF012002210190039100966946BB
:102310002846FFF795FE4FF4447000F025F8284654
:10232000FFF78EFE44F2990000F01EF82046FFF7FA
:1023300087FE4FF43240009001210220019103906A
:1023400069462046FFF77CFE042000F00DF80548A2
:10235000FFF776FE06B070BD181002400010014075
:10236000000C014000140140009000210120019167
:102370000290694670470000064881B0016841F04C
:1023800001010160006800F001000090009801B0B8
:10239000704700BF14100240654838B5654C00F026
:1023A00067F886B0472060600020A0604F2000F0F2
:1023B00036F810B1422100F05EF800F029F810B1B3
:1023C000482100F058F800F059F810B14F2100F002
:1023D00052F807B030BD584838B5584C00F048F8AE
:1023E00086B0472000F06BF800F019F810B16121B9
:1023F00000F041F800F00CF810B1672100F03BF854
:1024000000F03CF810B16E2100F035F807B030BD97
:102410004FF48050029002A9204600F01EBDE060FB
:1024200000202061A061204600F032BC444838B54D
:10243000444C00F01DF886B041F61F40606000205B
:10244000A06040F2CF70FFF7EAFF10B1802100F0EA
:1024500012F8FFF7DDFF10B1862100F00CF800F054
:102460000DF810B18D2100F006F807B030BD000066
:1024700038A5206070472846FFF7D9BD002000909E
:1024800001906946204601F09FBB3EB52E4C2F4877
:10249000FFF7EEFF40F2CF2000F011F8E0600020DF
:1024A000A061204600F0F4FB10B19D21FFF7E3FF8F
:1024B000FFF7E4FF10B1A421FFF7DDFF37BD606037
:1024C0000020A06040F2E730704781B00068184AF1
:1024D0001F49904207D1086840F00200086009686F
:1024E00001F002011FE0144A904207D1086840F051
:1024F00004000860096801F0040114E0104A9042E9
:1025000007D1086840F008000860096801F0080178
:1025100009E00E4A904208D1086840F010000860B7
:10252000096801F010010091009801B070470000A7
:10253000000400402C080020000800406C08002027
:10254000000C0040AC080020EC0800200010004007
:102550001C100240453A5C55736572735C6265728B
:10256000747A5C446F63756D656E74735C476974EF
:102570004875625C42535076322E325C425350763C
:10258000322E325C5372635C74696D2E63000000FE
:1025900080B54F484F4900F011F818B1BDE804402C
:1025A00046211BE001BD80B54B484C4900F006F8C0
:1025B00018B1BDE80440592110E001BD01604FF49D
:1025C000E131416000218160C16001610C21416104
:1025D00000218161C16101F01DBB000044A0FFF733
:1025E00026BD00002DE9F841044685B02068394A2F
:1025F0003FA53B4E3B4FDFF8F0803C49904226D14F
:10260000086840F4804008600222096801F48041B3
:1026100004914FF4007100F051F84FF4806000F025
:1026200045F800207060B06037608020F0600020C6
:1026300030617061B061F0613046FEF7D9FF18B1CA
:1026400084212846FFF7F3FC666374622BE0234A7B
:10265000904228D1486840F400304860022248681F
:1026600000F400300490042100F028F8082000F065
:102670001DF807F1140070640020B064F06480203D
:10268000306500207065B065F065306606F1440085
:10269000FEF7AEFF18B1AF212846FFF7C8FC06F1E0
:1026A00044006063B46606B0BDE8F081002100908C
:1026B0000191029140466946FFF7C2BC049800911F
:1026C00003200390019269464046FFF7B9BC000021
:1026D0002C090020003801406C0900200044004013
:1026E000C4050020580002400008014018100240B4
:1026F000453A5C55736572735C626572747A5C44CA
:102700006F63756D656E74735C4769744875625C60
:1027100042535076322E325C42535076322E325C27
:102720005372635C75736172742E630080B52548C3
:10273000254901604FF482714160002181604FF4AE
:102740000061C1600021016141614FF4007181614C
:102750000821C16100210162416281620A21C162D6
:1027600001F064FD28B1BDE80440452119A0FFF740
:102770005EBC01BD00681449884200D0704718B59E
:102780001248134C85B0016841F480510160A021CA
:10279000006800F48050009002220098019103200C
:1027A0000490029201A92046FFF74AFC4020002134
:1027B000019002910391204601A9FFF741FC06B068
:1027C00010BD00003C0700200030014018100240FE
:1027D00000080140453A5C55736572735C6265722E
:1027E000747A5C446F63756D656E74735C4769746D
:1027F0004875625C42535076322E325C42535076BA
:10280000322E325C5372635C7370692E6300000079
:102810003EB5374C374800BF3BA520604FF4807071
:10282000A0600120E060002060614FF46020E06162
:102830000020606002202061204600F0B3FE18B145
:102840004A212846FFF7F3FB0D20009001210720C5
:10285000019102906946204601F054F818B15421C4
:102860002846FFF7E4FB022001906946204601F06C
:1028700049F818B15C212846FFF7D9FB37BD0000A5
:1028800030B5044685B020681A4988422DD11A48CF
:102890001A4D016841F4007101600821006800F4DC
:1028A000007000900322009815480191029201A93E
:1028B000FFF7C6FB00206860A8608020E8604FF446
:1028C000007028614FF4006068612020A86100203A
:1028D0000C49E86129602846FEF78AFE18B180217C
:1028E00009A0FFF7A4FB25626C6205B030BD0000B3
:1028F000AC0900200024014018100240E807002025
:102900000010014008000240453A5C55736572733F
:102910005C626572747A5C446F63756D656E747326
:102920005C4769744875625C42535076322E325C63
:1029300042535076322E325C5372635C6164632E74
:102940006300000010B501224FF400416A486B4C4F
:10295000FFF747FC012240212046FFF742FC0122FD
:1029600000F00BF866480121C1700021817001213F
:102970000172002010BD614C002280212046FFF72B
:1029800030BC00F03CF8002240212046FFF729FC33
:10299000002010BD70B504462000574D574E0AD197
:1029A00000F019F8002200F01BF800F00FF8782171
:1029B000002001F07DFC012C06D100F00CF8012272
:1029C00000F00EF800F002F8002070BD0022402157
:1029D0003046FFF706BC002280213046FFF701BCDD
:1029E0004FF400412846FFF7FCBB10B5434C0122D1
:1029F000FFF7C3FF012200F002F80122C4E74FF401
:102A000000413D48FFF7EDBB80B50146002001F0D5
:102A10004FFC002002BDF8B5394C6178002904BF95
:102A2000207800282AD1A078364D012804BFE1780B
:102A300001291AD13448354F00883988344E8842EC
:102A40003CBF012030703178012917D1314800F0A6
:102A500037F90021A170FFF7C8FF2F490020088037
:102A6000388001212970307008E0002801BF04205F
:102A70002870207A012804BF002121720020F2BDB5
:102A800010B51F488178012933D01E4C21780129C7
:102A900013D10278012A01D1032029E0817000219D
:102AA000C1700020FFF776FF6420FFF7ADFF022022
:102AB00020701A4800F0F9F81BE02178042918D199
:102AC0004278012A02D10020207010BD01218170BE
:102AD000C1700120FFF75EFF5620FFF795FF20220F
:102AE0000F49104800F0F0FD0A4800F0DEF805201C
:102AF0002070002010BD0000000C014000100140BB
:102B0000040A0020FA090020420A0020440A00209A
:102B1000380A0020EC080020400A00206C08002041
:102B20004C060020AC09002038B5002100221A48CC
:102B30008BB230F813309A18491C8BB2802BF7DB1C
:102B4000164CD209A2804FF6FF752A464FF48071C9
:102B500000F076F8AA208DF800002A46A0888DF8AB
:102B60000200010AAA208DF801108DF8030004214B
:102B7000684600F065F80020E081A08132BD07487A
:102B800020214180102141810121417000210170EB
:102B9000C18181800020704718040020380A00207D
:102BA0001CB500680168CA0609D500200090324CA7
:102BB00000F016F8606B01684868304919E013BDF1
:102BC0001CB500680168CA0609D5002000902C4C8D
:102BD00000F006F8606B016848682A4909E013BDF7
:102BE000206801680091406800902046009901F03B
:102BF000EFB8C0F50070488002B0087840F00100DE
:102C000001F8040B4FF400722046BDE8104001F0BB
:102C100096B880B5184800F00BF81B4901F08FF802
:102C200000220221FFE71948FFF7DBFA002002BD6E
:102C30000168CA6842F01002CA604FF4007270471F
:102C400070B504460D46114E012202213046FFF7B1
:102C5000C8FA4FF6FF732A462146074801F016F8D6
:102C60000446002202213046FFF7BBFA200018BFBD
:102C70000124204670BD00002C0900201000002017
:102C80006C090020140200201400002000100140F4
:102C900038B5040001D1012032BD00F036F818B972
:102CA00000F02FF8FFF711FC21E00068C16841F047
:102CB0000101C160026842F0010202600020704719
:102CC00081B00068C16849084900C16041F2111231
:102CD000016A114202BF016A40F24442114203D12B
:102CE00003685B085B000360002001B070470220AE
:102CF0006870211D206800F01BF901206870002019
:102D000032BD002129702046704704F13C056878E7
:102D1000704710B50446206801698A0715D5C16857
:102D20008A0712D56FF002020261012121778069C2
:102D300010F0030F204602D001F0D0FA03E001F0BA
:102D4000CEFA00F087F800202077206801694A0752
:102D500015D5C1684A0712D56FF00402026102213D
:102D60002177806910F4407F204602D001F0B6FA46
:102D700003E001F0B4FA00F06DF80020207720683D
:102D800001690A0715D5C1680A0712D56FF0080254
:102D9000026104212177C06910F0030F204602D0A0
:102DA00001F09CFA03E001F09AFA00F053F80020D9
:102DB000207720680169CA0615D5C168CA0612D5F0
:102DC0006FF01002026108212177C06910F4407F82
:102DD000204602D001F082FA03E001F080FA00F010
:102DE00039F80020207720680169CA0708D5C16832
:102DF000CA0705D56FF0010202612046FEF768FFA1
:102E0000206801690A0608D5C1680A0605D56FF071
:102E100080020261204601F063FA206801694A06D7
:102E200008D5C1684A0605D56FF040020261204608
:102E300001F057FA206801698A060AD5C1688A0636
:102E400007D56FF0200202612046BDE8104001F076
:102E500049BA10BD204601F046BA38B500F05DF819
:102E600001D1022032BD01222270022060702A6846
:102E7000DFF830019368034093600868002837D07A
:102E8000102837D0202837D0302837D040282BD0F2
:102E900050281ED0602820D070280BD0B0F5805F5D
:102EA00003D0B0F5005F0CD02CE028688168C90819
:102EB000C9000CE000F028F82868816841F077012B
:102EC00005E000F021F82868816841F480418160C4
:102ED00018E000F01EF8502111E0CA68496828681F
:102EE00000F07BF860210AE000F013F8402106E0D2
:102EF000002104E0102102E0202100E030212868B8
:102F000000F07DF80FE00000CB684A688968286807
:102F10007DE0CA684968286850E0054605F13C0430
:102F2000207801287047012060700020207032BD99
:102F3000F0B5DFF874C01D4F03681D4C1D4D1E4ECB
:102F4000604518BFB84208D0B0F1804F18BFB042FA
:102F500003D0A84218BFA0420DD14A6823F07003E5
:102F60001343604518BFB84207D0B0F1804F1CBF73
:102F7000B042A84201D0A04203D1CA6823F44073F2
:102F800013434A6923F080031343036060458A6852
:102F9000C2620A68826212BFB842096901630121F4
:102FA0004161F0BD8800FFFF002C0140003401406A
:102FB000000C0040000800400004004010B5036A07
:102FC000046A64086400046223F00A03846924F03C
:102FD000F00444EA0214846123E010B5036A23F08C
:102FE000100303628369046A23F4704343EA0233E3
:102FF00024F0A004836144EA0114046210BD8268D5
:1030000022F07002114341F007018160704710B552
:10301000846824F47F442143114341EA0321816001
:1030200010BD1943016210BD10B50246012310788E
:1030300002E0145D60405B1C9CB28C42F9D3C0B2CC
:1030400010BDF8B51546044628780F46C1071E4640
:103050002AD500F0FE002870687900F0F000A02862
:1030600023D1387D06281FDA28795B2804BF6A7AC5
:103070005D2A19D10321681DFFF7D6FF297A8842FE
:1030800012D1397D68797854791D3A7DA8798854B0
:1030900007F10A013A7DE87988540120397D3944E5
:1030A000C873387D401C387599E0607A0028FBD1E0
:1030B000207AA28890422ED268B30027688887427F
:1030C000F2DA281D227AC05D711D8854217AA08809
:1030D000491C2172C9B288421AD1691DC95DA1700B
:1030E000A91DC95D5D2976D1C01DE080C11E89B2D0
:1030F000701CFFF799FFA17881426CD1227A711D73
:103100008854B11D227A5D208854E66001206072E7
:103110007F1CBFB2D2E7E088002860D129795B2903
:103120005ED168792070A8796070297AE87901EB1E
:103130000021A180A088A8B9A97A5D2950D1687A18
:10314000A07004210720E0805B20307000F049F877
:10315000701CFFF769FFA17881422CD15D20B0710E
:10316000717135E0052701E07F1CBFB26888874296
:1031700035DA281DC05DF055A188207A401CC2B206
:1031800091422072F0D105F10A01C0B2085C5D28BD
:1031900003D00021A1802172E180681DC05DA07074
:1031A000A088C01DE080C11E89B2681DFFF73CFFEA
:1031B000A178814202D00020E080F2BD5B20307017
:1031C000711C00F00EF8A078C855B11C5D20C855E0
:1031D0000120607203E000202072A080EBE7002055
:1031E000F2BD207870706078B070E879F070287A5D
:1031F000307170477248734A00F12C0300F11401DA
:103200001FE7F8B56E49487A0022002800F08E804A
:1032100000256D4BE8B2185C002800F089806D1C19
:10322000E8B21028F6DB87E00E78684C6019FF27BB
:1032300006F0F00CBCF1B00F0CD0BCF1C00F1FD0E9
:10324000BCF1D00F2DD0BCF1E00F46D0BCF1F00F97
:1032500045D052E0AB27B22E077011D14E78012E27
:1032600002D0AC25057034E00227077480F8506066
:10327000012008744D745855187C401C187440E0A7
:10328000AC27C12E077002D1012606741DE0C22EA4
:1032900001D1022602E0C32E1BD1032606740126AB
:1032A00013E0AD27D02E077013D102744E78012E93
:1032B00008D0022E08BF80F8206006D0032E18BF69
:1032C000042E06D180F8206002265E551D7C6D1C00
:1032D0001D74012680F8506010E0AE2600E0AF2695
:1032E00006700774012680F8202080F850600220C4
:1032F0005855187C401C187400E00422087C0128F2
:1033000011D14D7C324E307830B9012737702034DE
:10331000585D0026265402E020340126665502201E
:103320005855002008820020088148601046F2BDF0
:10333000EDB2FF2D7FF478AF0020F2BDFEB5224D37
:10334000287C002839D05B215D208DF800108DF895
:10335000050000274FF6FF76E85D02282AD11B49B9
:10336000CC1921788DF801100321207C8DF8020002
:1033700094F820008DF803000DF10100FFF754FED2
:103380008DF8040094F85000012807D1002184F83A
:103390005010324606216846FFF752FC94F8500060
:1033A000022804BF002184F850100020E855287C32
:1033B000411E29747F1C102FCEDB0020FEBD0000B3
:1033C0001805002010000020240A0020CC06002050
:1033D000FA0900202DE9FC410646354D3078C10739
:1033E00050D5A8690024C10009D4A86940F08050D4
:1033F000A8610124A86900F08050009000982D4F2A
:103400003968C80517D4386840F480703860FEF712
:10341000E1F880463968C8050DD4FEF7DBF8A0EB6B
:1034200008006528F6D303203FE0FEF7D3F8C01B61
:10343000404519D3F7E7E86910F440701EBF716882
:1034400001F44071884212D01B49E86901220A60E8
:1034500020F4407000220A60E861C00707D5FEF73B
:10346000B9F8074641F28938E8698107DDD5E9698D
:10347000706821F440710143E9611CB1A86920F032
:103480008050A8613178880705D52A68B06822F491
:10349000404202432A603078C10605D52968706928
:1034A00021F48001014329600020BDE8F68100007D
:1034B0000410024000700040400442420901020032
:1034C00081B006D52F4A00F00F00104400F8041C0C
:1034D00001E02D4B195401B070472C4A13684FF688
:1034E000FF0100020B4000F4E06018432849084344
:1034F0001060704738B5254B1C68C4F30223C3F134
:103500000704052C28BF04241D1D072D34BF0023EC
:10351000DB1E012505FA04F4641E2140994005FADA
:1035200003F35B1E1A401143BDE83440C6E7012295
:1035300000F01F01174BFFE78A40400943F82020A5
:10354000704710B5401EB0F1807F01D3012010BD3F
:10355000114C60600F214FF0FF30FFF7AFFF0022EA
:10356000A26007202060002010BD04280A4904D171
:10357000086840F00400086070470A6822F00402FE
:103580000A60704718ED00E000E400E00CED00E098
:103590000000FA0500E100E010E000E000F000B8F3
:1035A00070470000F8B5044600270026002C7AD0AA
:1035B00004F12405686820B9AE6028702046FFF742
:1035C0005FF9204600F066FA6968CA066CD401000B
:1035D0006AD1696821F4885141F002016960236869
:1035E000DFF88814E269D4F804C08B4204BFB2F556
:1035F000402F4FF40022E16842EA0C02D4F808C0E0
:10360000BCF5807F14BFBCF1010F4FF48077D4F874
:1036100014C0BCF1010F42EA41020FD131B9A169D6
:10362000491E490341F400610F4307E0696841F016
:1036300020016960A96841F00101A960596821F47D
:1036400069410F435F602368DFF824149F680F40CF
:1036500017439F60A168B1F5807F18BF012902D18F
:103660002669761E36052168CB6A23F470031E4353
:10367000CE622468DFF8FC13A3680B40934208D1A4
:103680000021A960696821F0020141F0010169602F
:10369000F2BD686820F0020040F010006860A86881
:1036A00040F00100A86003E0686840F01000686026
:1036B0000120F2BD044604F1240528780128704752
:1036C0000121297020469BE12DE9FC4704468946EB
:1036D0002068DFF8B413DFF8A883DFF8A873884206
:1036E00018BF4045924603D1386810F4702F64D15A
:1036F000FFF7E1FF08BF022061D0FFF7E1FF0028DC
:10370000064657D16968DFF87403014041F48071BF
:1037100069602068404518D1396811F4702F14D0C1
:10372000686840F4801068603968480505D56868A5
:1037300020F4005040F4805068606868C10446BFBF
:10374000A86820F00600002006E0696821F48011D6
:10375000696040684105E9E7A86053460020287089
:10376000216A0FF275308862216A0FF2B530C862A3
:10377000216A0FF2B53008636FF002002268106012
:103780004A462068816841F480718160206800F1B8
:103790004C01206AFDF76FFF2068816801F4602109
:1037A000B1F5602F81680CBF41F4A00141F4801194
:1037B000816003E00020287000E001263046BDE86B
:1037C000F68738B500F01CF801D1022032BD00F0B8
:1037D0001DF8010011D12868816821F48071816091
:1037E000286AFDF782FF0100616806BF21F4885155
:1037F00041F0010141F0400161600022227032BDC0
:10380000054605F124042078012870470121217024
:1038100028463FE110B5044621684868820622D553
:103820000A6890071FD5A06AC20603D4A06A40F4B4
:103830000070A06200F05AF804BFE06800280BD1C5
:103840004A6822F020024A60A06A20F48070A062D8
:10385000A06AC10400F050F82046FEF7E7FB21689B
:103860006FF0120008602168486802062BD50A68CC
:10387000500728D5A06AC20603D4A06A40F40050BD
:10388000A062886800F4E040B0F5E04F08D04868D6
:10389000420511D400F02AF804BFE06800280BD1DB
:1038A0004A6822F080024A60A06A20F48050A06238
:1038B000A06AC10500F020F8204600F015FD21683F
:1038C0006FF00C000860206841684A060DD500685A
:1038D000C1070AD5A06A40F48030A062204600F0FB
:1038E00004FD21686FF00100086010BD886800F4D5
:1038F0006020B0F5602F704703D4A06A40F001004B
:10390000A0627047F8B50A46002100F12403009137
:103910001C78012C01D10220F2BD01251D701F274A
:10392000546815680668072C08D2641E04EB8404EA
:10393000D6F834C000F05EF8756312E00D2C08D2A2
:10394000E41F04EB8404D6F830C000F053F835636C
:1039500007E00D3C04EB8404D6F82CC000F04AF8D4
:10396000F56207271668946805680A2E08D30A3E90
:1039700006EB4606D5F80CC000F036F8EC6006E021
:1039800006EB4606D5F810C000F02EF82C6114683E
:10399000102C18BF112C23D100683B4CA0421AD127
:1039A0003A48046825021BD4056845F40005056003
:1039B0001068102814D1304C35482568B5FBF0F05C
:1039C0000A2250430090009800281EBF009A521E01
:1039D0000092F8D104E00121586840F020005860BE
:1039E000002018700846F2BDB7402CEA0707B44023
:1039F0003C437047A7402CEA0707A5403D4370476A
:103A000038B504460020009020688168CA072AD48F
:103A100081681F4A41F00101816017480168B1FBCC
:103A2000F2F2009202E00098401E009000980028F8
:103A3000F9D1FDF7CFFD054621688868C10712D48A
:103A4000FDF7C8FD401B0328F6D304F12400002233
:103A5000416841F010014160816841F001018160DD
:103A60000270012032BD002032BD0000003C014048
:103A7000FDF7E1FFFE0E1FFF0C000020FEF1FFFF2F
:103A80000028014004240140002401400824014092
:103A900040420F0038B5044620688168CA0719D52E
:103AA0008168490849008160FDF794FD054620685A
:103AB0008168C8070ED5FDF78DFD401B0328F6D39E
:103AC000A06A40F01000A062E06A40F00100E062ED
:103AD000012032BD002032BD416A8A6A12F0500FC7
:103AE0001BD1886A40F4007088620A68906800F40C
:103AF0006020B0F5602F04BFC86800280AD18A6A28
:103B000022F480728A62886AC20403D4886A40F010
:103B1000010088620846FEF789BA096A0A6B1047F5
:103B2000406A00F0E3BB0000406A816A41F0400156
:103B30008162C16A41F00401C16200F0D8BB00009B
:103B400080B51F48016841F001010160006800F084
:103B50000100009000980320FFF7BFFC0022002125
:103B60006FF00B00FFF7C6FC002200216FF00A0087
:103B7000FFF7C0FC002200216FF00900FFF7BAFC3C
:103B8000002200216FF00400FFF7B4FC00220021A6
:103B90006FF00300FFF7AEFC002200216FF0010080
:103BA000FFF7A8FC002200214FF0FF30FFF7A2FC36
:103BB0000448016821F0E06141F00071016001BD3D
:103BC000181002400400014030B500F13C031A789F
:103BD000012A01D1022030BD01241C7002225A703A
:103BE0000268546824F070045460046865680A68C8
:103BF000154365600268946824F08004946002684C
:103C0000946848680443946001205870002018703C
:103C100030BD000038B5040001D1012032BD00F0F4
:103C200022F808B900F023F800F013F800F024F8A7
:103C3000FFE7416100F001F832BD2068C16841F43E
:103C40000051C1600020686020206870A8700020CA
:103C50007047242068702068C16821F40051C16059
:103C6000204600F06EBA04F13805687870470021EC
:103C700029702046FEF7B6BC2068016921F4904106
:103C800001612068416921F02A0170472DE9F8435C
:103C9000054605F138070C467878202816469846E0
:103CA0003CD1002C14BF002E012038D038780128D8
:103CB00034D0012139702120002179607870FDF71E
:103CC00089FCAE848146EE8403E0296814F8010B78
:103CD0004860E88C28B3E98C481EE8844B46A86805
:103CE000CDF80080B0F5805F0DD100F024F870B9F8
:103CF00020882968C0F3080048602869002814BF9C
:103D0000641CA41CE5E700F016F80028DDD00320B1
:103D100005E0202078700020387000E00220BDE827
:103D2000F283CDF800804B460022402100F005F8D8
:103D30000028EED0EBE700228021284667E138B565
:103D4000044604F138051346A87820283ED109B16D
:103D5000180001D1012032BD2878012836D0012277
:103D60002A70A162A385002068602220A870626B7F
:103D70000FF211209062626B0FF24120D062626BF1
:103D80000FF2412010630020626B50630A462068E6
:103D9000011D606BFDF76FFC00200090206801683A
:103DA000009142680092002200992A70C26842F491
:103DB0008072C2602068416941F001014161206860
:103DC000416941F040014161002032BD022032BD15
:103DD00038B5044604F13905206841692A78212A5A
:103DE00009D1090607D500F017F808B1FDF77DFCE9
:103DF000204600F03EF9206841696A78222A09D1FC
:103E0000490607D500F00EF808B1FDF76EFC204614
:103E100000F038F9002032BD416921F08001416194
:103E2000206B7047416921F040014161606B704730
:103E300038B5044625682968EA686B6911F00F00F7
:103E400007D188065DD590065BD52046BDE8324097
:103E50002CE1D80702D412F4907F52D0C80705D5C0
:103E6000D00503D5E06B40F00100E063480705D5BD
:103E7000D80703D5E06B40F00200E063880705D562
:103E8000D80703D5E06B40F00400E063080705D5D0
:103E9000D80703D5E06B40F00800E063E06B002832
:103EA0006ED0890604D5900644BF204600F0FEF887
:103EB00020684069E16B0A0701D440061BD5204603
:103EC00000F0E0F8206841694A060FD5FFF7AAFF25
:103ED00060B10FF2CD114163606BFDF71FFC00284C
:103EE0004ED0606B416BBDE8344008472046BDE8CA
:103EF000324000F0FDB9204600F0FAF90020E063FE
:103F000031BD08062CD510062AD594F83900212891
:103F100036D1A168206AB1F5805F0DD10188C1F367
:103F200008016960206918B9216A881C206207E0CD
:103F3000206A411C216203E0411C21620078686014
:103F4000E08C401EE08480B2D0B92068C16821F0C6
:103F50008001C1602068C16841F04001C16031BD8D
:103F600048060DD550060BD5E86820F04000E86003
:103F7000202184F839102046BDE8324000F0B9B95C
:103F800031BD0000416A00680268930613D4002026
:103F9000C8850868C26822F48072C26008684269F5
:103FA0005208520042610868426922F040024261B0
:103FB000202081F83A00084600F09CB9406A00F0E1
:103FC0009AB9000038B5446A2068406904F139059F
:103FD0002978212906D1000604D50020E084204656
:103FE00000F047F8206840696978222906D1400628
:103FF00004D50020E085204600F044F8E06B40F056
:104000001000E0632046BDE8324000F071B92DE9B0
:10401000F041069C05460E4690461F4628680168FA
:104020003140B1420CBF01200020404517D114F1AE
:10403000010FF3D024B1FDF7CDFAC01B8442EDD2BD
:104040002868C16821F4D07100F00CF805F138003F
:1040500020214170817000210170032000E00020C8
:10406000BDE8F081C16028684169490849004161A3
:1040700070470168CA6822F0C002CA60202180F837
:10408000391070470168CA6822F49072CA600168EA
:104090004A69520852004A61202180F83A1070475C
:1040A000406A0021C185C18400F022B980B590F832
:1040B0003A10222943D18268B2F5805F14D1826A16
:1040C000016941B903685968C1F308011180826A26
:1040D000911C816218E001684B6803F0FF031380B4
:1040E000816A4A1C82620FE001690029816A04D159
:1040F0004A1C82620268536805E04A1C82620268B8
:10410000536803F07F030B70C18D491EC18589B2CE
:1041100099B90168CA6822F02002CA600168CA68B9
:1041200022F48072CA6001684A69520852004A61EA
:10413000202180F83A1000F0DDF8002002BD0220B6
:1041400002BD2DE9F0470446642521680A69E0684C
:1041500022F4405202430A611926CA6831480240DB
:10416000A06802432069024360690243CA604A6949
:10417000A06922F4407202432B484A6181420ED169
:10418000FDF7FDF90746FDF7FAF98046FDF7F7F967
:104190008146FDF7F4F98246FDF7F1F90DE0FDF7F0
:1041A000E6F90746FDF7E3F98046FDF7E0F98146B9
:1041B000FDF7DDF98246FDF7DAF906FB09F96168DA
:1041C00089007743B7FBF1F206FB08F7B7FBF1F381
:1041D000B9FBF1F7B7FBF5F705FB17331B013233DA
:1041E000B3FBF5F3B2FBF5F203F0F00303EB0213BC
:1041F00006FB0AF74643B7FBF1F2B6FBF1F0642188
:10420000B0FBF1F005FB10252D0132356420B5FB24
:10421000F0F0216800F00F00C3188B60BDE8F08754
:1042200000000000F3E9FFFF0038014010B5040072
:1042300001D1012010BD0020A06294F8510010B9F6
:104240002046FEF797FA022184F851102068016891
:1042500021F0400101606268A068A1690243E06842
:104260000243206902436069024301F40071E0697E
:104270000A430243206A0243A06A024320680260A4
:10428000A169606A090C01F00401014320684160E2
:104290002068E16A01612068C16921F40061C1619F
:1042A00000206065012084F85100002010BD00004E
:1042B00080B5084A0B0943EA0013137009014FF651
:1042C000FF7351700093982102230348FBF7ACFF62
:1042D00002BD0000500A002094070020704770477C
:1042E0007047704770477047704770477047704716
:1042F00070477047704770477047FEE7FEE7FEE77C
:10430000FEE770477047704780B500F049F8BDE898
:104310000140FFF743B91748FDF76EBA1648FDF79D
:104320006BBA1648FDF768BA1548FFF773BA154817
:10433000FEF7EFBC1448FEF7ECBC1448FCF744B899
:104340001248FCF75AB910B5114C2046FEF728FC6C
:1043500004E010B50F4C2046FEF732FC2046BDE8C5
:104360001040FFF765BD0C48FEF7D3BC0B48FEF7C5
:10437000D0BC0000E8070020C4050020080600208B
:10438000AC0900202C0800206C08002094070020B5
:104390002C0900206C090020AC080020EC0800204B
:1043A00002494A68087882184A6070470000002075
:1043B0000E49086840F0010008604A680C48024055
:1043C0004A600B680B4803400B60086820F48020AB
:1043D00008604FF41F004A6822F4FE024A608860B9
:1043E0004FF0006004490860704700000010024070
:1043F0000000FFF8FFFFF6FE08ED00E000000000FF
:1044000000000000010203040607080919E050F843
:10441000042BD30744BFA9F101039A18091F0023F5
:10442000042942F8043BF9D25FEA817C134604D5A3
:104430004FF0000CA2F800C09B1CC90744BF00212C
:10444000197050F8041B0029E1D1704710B450F8DE
:10445000041B79B10268436802440830DC0744BF9A
:10446000A9F10104E31852F8044B43F8044B091F67
:10447000F9D1ECE710BC704710B507497944183101
:10448000064C7C44163404E00A68081D1144884731
:104490000146A142F8D110BD08000000280000002C
:1044A0006DFFFFFF440A0000100000200000000024
:1044B0009DFFFFFF100000006400000000000020CE
:1044C0000000000000F00DF8002801D0FFF7D4FF35
:1044D000AFF300800020AFF30080FDF79DFA00F0FD
:1044E00002F80120704700F001B800000746384686
:1044F00000F002F8FBE7000080B5AFF30080024A4D
:1045000011001820ABBEFBE72600020001488047DF
:1045100001480047B14300082D4500080100000094
:10452000000000001000000000A24A04AFF3008069
:10453000AFF30080FFF7C6FF000000000102030494
:10454000FFF7FEBFFFF7FEBFFFF7FEBFFFF7FEBF9F
:10455000FFF7FEBFFFF7FEBFFFF7FEBFFFF7FEBF8F
:10456000FFF7FEBFFFF7FEBFFFF7FEBFFFF7FEBF7F
:10457000FFF7FEBFFFF7FEBFFFF7FEBFFFF7FEBF6F
:10458000FFF7FEBFFFF7FEBFFFF7FEBFFFF7FEBF5F
:10459000FFF7FEBFFFF7FEBFFFF7FEBFFFF7FEBF4F
:1045A000FFF7FEBFFFF7FEBFFFF7FEBFFFF7FEBF3F
:1045B000FFF7FEBFFFF7FEBFFFF7FEBFFFF7FEBF2F
:1045C000FFF7FEBFFFF7FEBFFFF7FEBFFFF7FEBF1F
:1045D000FFF7FEBFFFF7FEBFFFF7FEBFFFF7FEBF0F
:1045E000FFF7FEBFFFF7FEBFFFF7FEBFFFF7FEBFFF
:1045F000FFF7FEBFFFF7FEBFFFF7FEBFFFF7FEBFEF
:040000050800452D7D
:00000001FF
